{
  "contractName": "PDS",
  "abi": [
    {
      "constant": true,
      "inputs": [
        {
          "name": "",
          "type": "uint256"
        }
      ],
      "name": "tempPDSdatas",
      "outputs": [
        {
          "name": "id",
          "type": "uint256"
        },
        {
          "name": "UIN",
          "type": "bytes"
        },
        {
          "name": "_type",
          "type": "string"
        },
        {
          "name": "quality",
          "type": "bytes"
        },
        {
          "name": "weight",
          "type": "string"
        },
        {
          "name": "location",
          "type": "string"
        },
        {
          "name": "arrival",
          "type": "string"
        }
      ],
      "payable": false,
      "stateMutability": "view",
      "type": "function",
      "signature": "0x2f3c41a8"
    },
    {
      "constant": true,
      "inputs": [],
      "name": "PDScount",
      "outputs": [
        {
          "name": "",
          "type": "uint256"
        }
      ],
      "payable": false,
      "stateMutability": "view",
      "type": "function",
      "signature": "0x8df1180e"
    },
    {
      "constant": true,
      "inputs": [
        {
          "name": "",
          "type": "uint256"
        }
      ],
      "name": "PDSdatas",
      "outputs": [
        {
          "name": "id",
          "type": "uint256"
        },
        {
          "name": "UIN",
          "type": "bytes"
        },
        {
          "name": "_type",
          "type": "string"
        },
        {
          "name": "quality",
          "type": "bytes"
        },
        {
          "name": "weight",
          "type": "string"
        },
        {
          "name": "location",
          "type": "string"
        },
        {
          "name": "arrival",
          "type": "string"
        }
      ],
      "payable": false,
      "stateMutability": "view",
      "type": "function",
      "signature": "0x97ffb86a"
    },
    {
      "constant": true,
      "inputs": [],
      "name": "PDSlistcount",
      "outputs": [
        {
          "name": "",
          "type": "uint256"
        }
      ],
      "payable": false,
      "stateMutability": "view",
      "type": "function",
      "signature": "0x9e9696da"
    },
    {
      "inputs": [],
      "payable": false,
      "stateMutability": "nonpayable",
      "type": "constructor",
      "signature": "constructor"
    },
    {
      "constant": false,
      "inputs": [
        {
          "name": "_a",
          "type": "string"
        }
      ],
      "name": "convertingToString",
      "outputs": [
        {
          "name": "",
          "type": "string"
        }
      ],
      "payable": false,
      "stateMutability": "nonpayable",
      "type": "function",
      "signature": "0x50365fee"
    },
    {
      "constant": false,
      "inputs": [
        {
          "name": "time",
          "type": "string"
        },
        {
          "name": "_type",
          "type": "string"
        },
        {
          "name": "quality",
          "type": "string"
        },
        {
          "name": "f_aadhar",
          "type": "string"
        },
        {
          "name": "purist_aadhar",
          "type": "string"
        },
        {
          "name": "weight",
          "type": "string"
        },
        {
          "name": "location",
          "type": "string"
        },
        {
          "name": "arrival",
          "type": "string"
        }
      ],
      "name": "addPDS",
      "outputs": [],
      "payable": false,
      "stateMutability": "nonpayable",
      "type": "function",
      "signature": "0xed81aee3"
    },
    {
      "constant": false,
      "inputs": [
        {
          "name": "UIN",
          "type": "bytes"
        },
        {
          "name": "quality",
          "type": "bytes"
        },
        {
          "name": "weight",
          "type": "string"
        },
        {
          "name": "location",
          "type": "string"
        },
        {
          "name": "arrival",
          "type": "string"
        }
      ],
      "name": "warehouseUpdate",
      "outputs": [],
      "payable": false,
      "stateMutability": "nonpayable",
      "type": "function",
      "signature": "0x9403cdff"
    }
  ],
  "bytecode": "0x608060405234801561001057600080fd5b50600060028190555061166a806100286000396000f3fe608060405260043610610083576000357c0100000000000000000000000000000000000000000000000000000000900463ffffffff1680632f3c41a81461008857806350365fee146100cb5780638df1180e146101085780639403cdff1461013357806397ffb86a1461015c5780639e9696da1461019f578063ed81aee3146101ca575b600080fd5b34801561009457600080fd5b506100af60048036036100aa9190810190611373565b6101f3565b6040516100c2979695949392919061148a565b60405180910390f35b3480156100d757600080fd5b506100f260048036036100ed91908101906111c0565b6105c5565b6040516100ff919061144d565b60405180910390f35b34801561011457600080fd5b5061011d6105d4565b60405161012a919061146f565b60405180910390f35b34801561013f57600080fd5b5061015a600480360361015591908101906110d1565b6105da565b005b34801561016857600080fd5b50610183600480360361017e9190810190611373565b610854565b604051610196979695949392919061148a565b60405180910390f35b3480156101ab57600080fd5b506101b4610c26565b6040516101c1919061146f565b60405180910390f35b3480156101d657600080fd5b506101f160048036036101ec9190810190611201565b610c2c565b005b6000602052806000526040600020600091509050806000015490806001018054600181600116156101000203166002900480601f0160208091040260200160405190810160405280929190818152602001828054600181600116156101000203166002900480156102a55780601f1061027a576101008083540402835291602001916102a5565b820191906000526020600020905b81548152906001019060200180831161028857829003601f168201915b505050505090806002018054600181600116156101000203166002900480601f0160208091040260200160405190810160405280929190818152602001828054600181600116156101000203166002900480156103435780601f1061031857610100808354040283529160200191610343565b820191906000526020600020905b81548152906001019060200180831161032657829003601f168201915b505050505090806003018054600181600116156101000203166002900480601f0160208091040260200160405190810160405280929190818152602001828054600181600116156101000203166002900480156103e15780601f106103b6576101008083540402835291602001916103e1565b820191906000526020600020905b8154815290600101906020018083116103c457829003601f168201915b505050505090806004018054600181600116156101000203166002900480601f01602080910402602001604051908101604052809291908181526020018280546001816001161561010002031660029004801561047f5780601f106104545761010080835404028352916020019161047f565b820191906000526020600020905b81548152906001019060200180831161046257829003601f168201915b505050505090806005018054600181600116156101000203166002900480601f01602080910402602001604051908101604052809291908181526020018280546001816001161561010002031660029004801561051d5780601f106104f25761010080835404028352916020019161051d565b820191906000526020600020905b81548152906001019060200180831161050057829003601f168201915b505050505090806006018054600181600116156101000203166002900480601f0160208091040260200160405190810160405280929190818152602001828054600181600116156101000203166002900480156105bb5780601f10610590576101008083540402835291602001916105bb565b820191906000526020600020905b81548152906001019060200180831161059e57829003601f168201915b5050505050905087565b60608082905080915050919050565b60025481565b6000600190505b6002548111151561084c5785805190602001206001600083815260200190815260200160002060010160405180828054600181600116156101000203166002900480156106655780601f10610643576101008083540402835291820191610665565b820191906000526020600020905b815481529060010190602001808311610651575b50509150506040518091039020141561083f5760026000815480929190600101919050555060e0604051908101604052806002548152602001878152602001600160008481526020019081526020016000206002018054600181600116156101000203166002900480601f01602080910402602001604051908101604052809291908181526020018280546001816001161561010002031660029004801561074e5780601f106107235761010080835404028352916020019161074e565b820191906000526020600020905b81548152906001019060200180831161073157829003601f168201915b50505050508152602001868152602001858152602001848152602001838152506001600060025481526020019081526020016000206000820151816000015560208201518160010190805190602001906107a9929190610eec565b5060408201518160020190805190602001906107c6929190610f6c565b5060608201518160030190805190602001906107e3929190610eec565b506080820151816004019080519060200190610800929190610f6c565b5060a082015181600501908051906020019061081d929190610f6c565b5060c082015181600601908051906020019061083a929190610f6c565b509050505b80806001019150506105e1565b505050505050565b6001602052806000526040600020600091509050806000015490806001018054600181600116156101000203166002900480601f0160208091040260200160405190810160405280929190818152602001828054600181600116156101000203166002900480156109065780601f106108db57610100808354040283529160200191610906565b820191906000526020600020905b8154815290600101906020018083116108e957829003601f168201915b505050505090806002018054600181600116156101000203166002900480601f0160208091040260200160405190810160405280929190818152602001828054600181600116156101000203166002900480156109a45780601f10610979576101008083540402835291602001916109a4565b820191906000526020600020905b81548152906001019060200180831161098757829003601f168201915b505050505090806003018054600181600116156101000203166002900480601f016020809104026020016040519081016040528092919081815260200182805460018160011615610100020316600290048015610a425780601f10610a1757610100808354040283529160200191610a42565b820191906000526020600020905b815481529060010190602001808311610a2557829003601f168201915b505050505090806004018054600181600116156101000203166002900480601f016020809104026020016040519081016040528092919081815260200182805460018160011615610100020316600290048015610ae05780601f10610ab557610100808354040283529160200191610ae0565b820191906000526020600020905b815481529060010190602001808311610ac357829003601f168201915b505050505090806005018054600181600116156101000203166002900480601f016020809104026020016040519081016040528092919081815260200182805460018160011615610100020316600290048015610b7e5780601f10610b5357610100808354040283529160200191610b7e565b820191906000526020600020905b815481529060010190602001808311610b6157829003601f168201915b505050505090806006018054600181600116156101000203166002900480601f016020809104026020016040519081016040528092919081815260200182805460018160011615610100020316600290048015610c1c5780601f10610bf157610100808354040283529160200191610c1c565b820191906000526020600020905b815481529060010190602001808311610bff57829003601f168201915b5050505050905087565b60035481565b600260008154809291906001019190505550606088610c4a876105c5565b6040516020018083805190602001908083835b602083101515610c825780518252602082019150602081019050602083039250610c5d565b6001836020036101000a03801982511681845116808217855250505050505090500182805190602001908083835b602083101515610cd55780518252602082019150602081019050602083039250610cb0565b6001836020036101000a038019825116818451168082178552505050505050905001925050506040516020818303038152906040529050606087610d18876105c5565b6040516020018083805190602001908083835b602083101515610d505780518252602082019150602081019050602083039250610d2b565b6001836020036101000a03801982511681845116808217855250505050505090500182805190602001908083835b602083101515610da35780518252602082019150602081019050602083039250610d7e565b6001836020036101000a03801982511681845116808217855250505050505090500192505050604051602081830303815290604052905060e06040519081016040528060025481526020018381526020018a815260200182815260200186815260200185815260200184815250600160006002548152602001908152602001600020600082015181600001556020820151816001019080519060200190610e4b929190610eec565b506040820151816002019080519060200190610e68929190610f6c565b506060820151816003019080519060200190610e85929190610eec565b506080820151816004019080519060200190610ea2929190610f6c565b5060a0820151816005019080519060200190610ebf929190610f6c565b5060c0820151816006019080519060200190610edc929190610f6c565b5090505050505050505050505050565b828054600181600116156101000203166002900490600052602060002090601f016020900481019282601f10610f2d57805160ff1916838001178555610f5b565b82800160010185558215610f5b579182015b82811115610f5a578251825591602001919060010190610f3f565b5b509050610f689190610fec565b5090565b828054600181600116156101000203166002900490600052602060002090601f016020900481019282601f10610fad57805160ff1916838001178555610fdb565b82800160010185558215610fdb579182015b82811115610fda578251825591602001919060010190610fbf565b5b509050610fe89190610fec565b5090565b61100e91905b8082111561100a576000816000905550600101610ff2565b5090565b90565b600082601f830112151561102457600080fd5b813561103761103282611550565b611523565b9150808252602083016020830185838301111561105357600080fd5b61105e8382846115dd565b50505092915050565b600082601f830112151561107a57600080fd5b813561108d6110888261157c565b611523565b915080825260208301602083018583830111156110a957600080fd5b6110b48382846115dd565b50505092915050565b60006110c982356115d3565b905092915050565b600080600080600060a086880312156110e957600080fd5b600086013567ffffffffffffffff81111561110357600080fd5b61110f88828901611011565b955050602086013567ffffffffffffffff81111561112c57600080fd5b61113888828901611011565b945050604086013567ffffffffffffffff81111561115557600080fd5b61116188828901611067565b935050606086013567ffffffffffffffff81111561117e57600080fd5b61118a88828901611067565b925050608086013567ffffffffffffffff8111156111a757600080fd5b6111b388828901611067565b9150509295509295909350565b6000602082840312156111d257600080fd5b600082013567ffffffffffffffff8111156111ec57600080fd5b6111f884828501611067565b91505092915050565b600080600080600080600080610100898b03121561121e57600080fd5b600089013567ffffffffffffffff81111561123857600080fd5b6112448b828c01611067565b985050602089013567ffffffffffffffff81111561126157600080fd5b61126d8b828c01611067565b975050604089013567ffffffffffffffff81111561128a57600080fd5b6112968b828c01611067565b965050606089013567ffffffffffffffff8111156112b357600080fd5b6112bf8b828c01611067565b955050608089013567ffffffffffffffff8111156112dc57600080fd5b6112e88b828c01611067565b94505060a089013567ffffffffffffffff81111561130557600080fd5b6113118b828c01611067565b93505060c089013567ffffffffffffffff81111561132e57600080fd5b61133a8b828c01611067565b92505060e089013567ffffffffffffffff81111561135757600080fd5b6113638b828c01611067565b9150509295985092959890939650565b60006020828403121561138557600080fd5b6000611393848285016110bd565b91505092915050565b60006113a7826115a8565b8084526113bb8160208601602086016115ec565b6113c48161161f565b602085010191505092915050565b60006113dd826115be565b8084526113f18160208601602086016115ec565b6113fa8161161f565b602085010191505092915050565b6000611413826115b3565b8084526114278160208601602086016115ec565b6114308161161f565b602085010191505092915050565b611447816115c9565b82525050565b6000602082019050818103600083015261146781846113d2565b905092915050565b6000602082019050611484600083018461143e565b92915050565b600060e08201905061149f600083018a61143e565b81810360208301526114b1818961139c565b905081810360408301526114c58188611408565b905081810360608301526114d9818761139c565b905081810360808301526114ed8186611408565b905081810360a08301526115018185611408565b905081810360c08301526115158184611408565b905098975050505050505050565b6000604051905081810181811067ffffffffffffffff8211171561154657600080fd5b8060405250919050565b600067ffffffffffffffff82111561156757600080fd5b601f19601f8301169050602081019050919050565b600067ffffffffffffffff82111561159357600080fd5b601f19601f8301169050602081019050919050565b600081519050919050565b600081519050919050565b600081519050919050565b6000819050919050565b6000819050919050565b82818337600083830152505050565b60005b8381101561160a5780820151818401526020810190506115ef565b83811115611619576000848401525b50505050565b6000601f19601f830116905091905056fea265627a7a723058209293a38a1344257b127b2fa48dd3d104d79075adf7c81f382d7cf82798e8b7016c6578706572696d656e74616cf50037",
  "source": "pragma solidity 0.5.0;\npragma experimental ABIEncoderV2;\n\ncontract PDS{\n\n\n\n  struct PDSdata{\n    uint id;\n    bytes UIN;\n    string _type;\n    bytes quality;\n    string weight;\n    string location;\n    string arrival;\n\n\n  }\n  mapping(uint => PDSdata) public tempPDSdatas;\n\n  mapping(uint => PDSdata) public PDSdatas;\n  uint public PDScount;\n\n  // mapping(bytes=>(mapping(uiint->PDSdata)public)) public PDSlist;\n  uint public PDSlistcount; \n\n\n  constructor() public{\n    PDScount = 0;\n  }\n\n  function convertingToString(string memory _a) public returns(string memory){\n  \n    string memory converted = string(_a);\n    return converted;\n  }\n  \n\n\n  function  addPDS(string memory time, string memory _type,  string memory quality, string memory f_aadhar, string memory purist_aadhar, string memory weight, string memory location, string memory arrival) public {\n    PDScount++;\n    bytes memory UIN = abi.encodePacked(time, convertingToString(f_aadhar));\n    bytes memory qual = abi.encodePacked(quality, convertingToString(purist_aadhar));\n    \n    PDSdatas[PDScount] = PDSdata(PDScount, UIN, _type, qual, weight, location, arrival);\n\n  }\n\n  // function printStatus(bytes memory UIN) public returns (bytes[] memory, string[] memory, bytes[] memory, string[] memory, string[] memory, string[] memory) { \n  //   // uint tempPDScount = 0;\n \n\n  //   bytes[] memory uins = new bytes[](PDScount);\n\n  //   string[] memory _types = new string[](PDScount);\n\n  //   string[] memory qualities = new string[](PDScount);\n\n  //   string[] memory weights = new string[](PDScount);\n\n  //   string[] memory locations = new string[](PDScount);\n\n  //   string[] memory arrivals = new string[](PDScount);\n\n  \n  //   for(uint i = 1; i<=PDScount;i++){\n  //     if(compareStrings(PDSdatas[i].UIN, UIN)){\n  //       uins[i] = PDSdatas[i].UIN;\n  //       _types[i] = PDSdatas[i]._type;\n  //       qualities[i] = PDSdatas[i].quality;\n  //       weights[i] = PDSdatas[i].weight;\n  //       locations[i] = PDSdatas[i].location;\n  //       arrivals[i] = PDSdatas[i].arrival;\n\n        \n        \n\n  //     }\n  //     return (uins, _types, qualities, weights, locations, arrivals);\n  //   }\n  // }\n\n  // function getUINsbykey() public {\n  //   for(uint i=1;i<=PDScount;i++){\n\n\n\n\n  //   }\n  // }\n\n  \n  function warehouseUpdate(bytes memory UIN, bytes memory quality, string memory weight, string memory location, string memory arrival) public {\n    for(uint i = 1; i<=PDScount;i++){\n      if(keccak256(PDSdatas[i].UIN)==keccak256(UIN)){\n        PDScount++;\n        \n        PDSdatas[PDScount] = PDSdata(PDScount, UIN, PDSdatas[i]._type, quality, weight, location, arrival);\n\n      }\n    }\n\n  }\n}",
  "sourcePath": "/home/praveen/pds-pragyanhack/pragyan-hack-2019/contracts/PDS.sol",
  "compiler": {
    "name": "solc",
    "version": "0.5.0+commit.1d4f565a.Emscripten.clang"
  },
  "schemaVersion": "3.0.1",
  "updatedAt": "2019-01-20T06:06:35.097Z",
  "devdoc": {
    "methods": {}
  },
  "userdoc": {
    "methods": {}
  }
}