{
  "contractName": "PDS",
  "abi": [
    {
      "constant": true,
      "inputs": [
        {
          "name": "",
          "type": "uint256"
        }
      ],
      "name": "tempPDSdatas",
      "outputs": [
        {
          "name": "id",
          "type": "uint256"
        },
        {
          "name": "UIN",
          "type": "bytes"
        },
        {
          "name": "_type",
          "type": "string"
        },
        {
          "name": "quality",
          "type": "bytes"
        },
        {
          "name": "weight",
          "type": "string"
        },
        {
          "name": "location",
          "type": "string"
        },
        {
          "name": "arrival",
          "type": "string"
        }
      ],
      "payable": false,
      "stateMutability": "view",
      "type": "function",
      "signature": "0x2f3c41a8"
    },
    {
      "constant": true,
      "inputs": [],
      "name": "PDScount",
      "outputs": [
        {
          "name": "",
          "type": "uint256"
        }
      ],
      "payable": false,
      "stateMutability": "view",
      "type": "function",
      "signature": "0x8df1180e"
    },
    {
      "constant": true,
      "inputs": [
        {
          "name": "",
          "type": "uint256"
        }
      ],
      "name": "PDSdatas",
      "outputs": [
        {
          "name": "id",
          "type": "uint256"
        },
        {
          "name": "UIN",
          "type": "bytes"
        },
        {
          "name": "_type",
          "type": "string"
        },
        {
          "name": "quality",
          "type": "bytes"
        },
        {
          "name": "weight",
          "type": "string"
        },
        {
          "name": "location",
          "type": "string"
        },
        {
          "name": "arrival",
          "type": "string"
        }
      ],
      "payable": false,
      "stateMutability": "view",
      "type": "function",
      "signature": "0x97ffb86a"
    },
    {
      "inputs": [],
      "payable": false,
      "stateMutability": "nonpayable",
      "type": "constructor",
      "signature": "constructor"
    },
    {
      "constant": false,
      "inputs": [
        {
          "name": "_a",
          "type": "string"
        }
      ],
      "name": "convertingToString",
      "outputs": [
        {
          "name": "",
          "type": "string"
        }
      ],
      "payable": false,
      "stateMutability": "nonpayable",
      "type": "function",
      "signature": "0x50365fee"
    },
    {
      "constant": false,
      "inputs": [
        {
          "name": "_type",
          "type": "string"
        },
        {
          "name": "quality",
          "type": "string"
        },
        {
          "name": "f_aadhar",
          "type": "string"
        },
        {
          "name": "purist_aadhar",
          "type": "string"
        },
        {
          "name": "weight",
          "type": "string"
        },
        {
          "name": "location",
          "type": "string"
        },
        {
          "name": "arrival",
          "type": "string"
        }
      ],
      "name": "addPDS",
      "outputs": [],
      "payable": false,
      "stateMutability": "nonpayable",
      "type": "function",
      "signature": "0x39302a1b"
    },
    {
      "constant": false,
      "inputs": [
        {
          "name": "UIN",
          "type": "bytes"
        }
      ],
      "name": "printStatus",
      "outputs": [],
      "payable": false,
      "stateMutability": "nonpayable",
      "type": "function",
      "signature": "0x0798efb9"
    },
    {
      "constant": false,
      "inputs": [
        {
          "name": "UIN",
          "type": "bytes"
        },
        {
          "name": "weight",
          "type": "string"
        },
        {
          "name": "location",
          "type": "string"
        },
        {
          "name": "arrival",
          "type": "string"
        }
      ],
      "name": "warehouseUpdate",
      "outputs": [],
      "payable": false,
      "stateMutability": "nonpayable",
      "type": "function",
      "signature": "0xbd75a593"
    }
  ],
  "bytecode": "0x608060405234801561001057600080fd5b506000600281905550612301806100286000396000f3fe608060405260043610610083576000357c0100000000000000000000000000000000000000000000000000000000900463ffffffff1680630798efb9146100885780632f3c41a81461015057806339302a1b1461042757806350365fee146108795780638df1180e146109ba57806397ffb86a146109e5578063bd75a59314610cbc575b600080fd5b34801561009457600080fd5b5061014e600480360360208110156100ab57600080fd5b81019080803590602001906401000000008111156100c857600080fd5b8201836020820111156100da57600080fd5b803590602001918460018302840111640100000000831117156100fc57600080fd5b91908080601f016020809104026020016040519081016040528093929190818152602001838380828437600081840152601f19601f820116905080830192505050505050509192919290505050610f49565b005b34801561015c57600080fd5b506101896004803603602081101561017357600080fd5b810190808035906020019092919050505061146e565b6040518088815260200180602001806020018060200180602001806020018060200187810387528d818151815260200191508051906020019080838360005b838110156101e35780820151818401526020810190506101c8565b50505050905090810190601f1680156102105780820380516001836020036101000a031916815260200191505b5087810386528c818151815260200191508051906020019080838360005b8381101561024957808201518184015260208101905061022e565b50505050905090810190601f1680156102765780820380516001836020036101000a031916815260200191505b5087810385528b818151815260200191508051906020019080838360005b838110156102af578082015181840152602081019050610294565b50505050905090810190601f1680156102dc5780820380516001836020036101000a031916815260200191505b5087810384528a818151815260200191508051906020019080838360005b838110156103155780820151818401526020810190506102fa565b50505050905090810190601f1680156103425780820380516001836020036101000a031916815260200191505b50878103835289818151815260200191508051906020019080838360005b8381101561037b578082015181840152602081019050610360565b50505050905090810190601f1680156103a85780820380516001836020036101000a031916815260200191505b50878103825288818151815260200191508051906020019080838360005b838110156103e15780820151818401526020810190506103c6565b50505050905090810190601f16801561040e5780820380516001836020036101000a031916815260200191505b509d505050505050505050505050505060405180910390f35b34801561043357600080fd5b50610877600480360360e081101561044a57600080fd5b810190808035906020019064010000000081111561046757600080fd5b82018360208201111561047957600080fd5b8035906020019184600183028401116401000000008311171561049b57600080fd5b91908080601f016020809104026020016040519081016040528093929190818152602001838380828437600081840152601f19601f820116905080830192505050505050509192919290803590602001906401000000008111156104fe57600080fd5b82018360208201111561051057600080fd5b8035906020019184600183028401116401000000008311171561053257600080fd5b91908080601f016020809104026020016040519081016040528093929190818152602001838380828437600081840152601f19601f8201169050808301925050505050505091929192908035906020019064010000000081111561059557600080fd5b8201836020820111156105a757600080fd5b803590602001918460018302840111640100000000831117156105c957600080fd5b91908080601f016020809104026020016040519081016040528093929190818152602001838380828437600081840152601f19601f8201169050808301925050505050505091929192908035906020019064010000000081111561062c57600080fd5b82018360208201111561063e57600080fd5b8035906020019184600183028401116401000000008311171561066057600080fd5b91908080601f016020809104026020016040519081016040528093929190818152602001838380828437600081840152601f19601f820116905080830192505050505050509192919290803590602001906401000000008111156106c357600080fd5b8201836020820111156106d557600080fd5b803590602001918460018302840111640100000000831117156106f757600080fd5b91908080601f016020809104026020016040519081016040528093929190818152602001838380828437600081840152601f19601f8201169050808301925050505050505091929192908035906020019064010000000081111561075a57600080fd5b82018360208201111561076c57600080fd5b8035906020019184600183028401116401000000008311171561078e57600080fd5b91908080601f016020809104026020016040519081016040528093929190818152602001838380828437600081840152601f19601f820116905080830192505050505050509192919290803590602001906401000000008111156107f157600080fd5b82018360208201111561080357600080fd5b8035906020019184600183028401116401000000008311171561082557600080fd5b91908080601f016020809104026020016040519081016040528093929190818152602001838380828437600081840152601f19601f820116905080830192505050505050509192919290505050611840565b005b34801561088557600080fd5b5061093f6004803603602081101561089c57600080fd5b81019080803590602001906401000000008111156108b957600080fd5b8201836020820111156108cb57600080fd5b803590602001918460018302840111640100000000831117156108ed57600080fd5b91908080601f016020809104026020016040519081016040528093929190818152602001838380828437600081840152601f19601f820116905080830192505050505050509192919290505050611aa2565b6040518080602001828103825283818151815260200191508051906020019080838360005b8381101561097f578082015181840152602081019050610964565b50505050905090810190601f1680156109ac5780820380516001836020036101000a031916815260200191505b509250505060405180910390f35b3480156109c657600080fd5b506109cf611ab1565b6040518082815260200191505060405180910390f35b3480156109f157600080fd5b50610a1e60048036036020811015610a0857600080fd5b8101908080359060200190929190505050611ab7565b6040518088815260200180602001806020018060200180602001806020018060200187810387528d818151815260200191508051906020019080838360005b83811015610a78578082015181840152602081019050610a5d565b50505050905090810190601f168015610aa55780820380516001836020036101000a031916815260200191505b5087810386528c818151815260200191508051906020019080838360005b83811015610ade578082015181840152602081019050610ac3565b50505050905090810190601f168015610b0b5780820380516001836020036101000a031916815260200191505b5087810385528b818151815260200191508051906020019080838360005b83811015610b44578082015181840152602081019050610b29565b50505050905090810190601f168015610b715780820380516001836020036101000a031916815260200191505b5087810384528a818151815260200191508051906020019080838360005b83811015610baa578082015181840152602081019050610b8f565b50505050905090810190601f168015610bd75780820380516001836020036101000a031916815260200191505b50878103835289818151815260200191508051906020019080838360005b83811015610c10578082015181840152602081019050610bf5565b50505050905090810190601f168015610c3d5780820380516001836020036101000a031916815260200191505b50878103825288818151815260200191508051906020019080838360005b83811015610c76578082015181840152602081019050610c5b565b50505050905090810190601f168015610ca35780820380516001836020036101000a031916815260200191505b509d505050505050505050505050505060405180910390f35b348015610cc857600080fd5b50610f4760048036036080811015610cdf57600080fd5b8101908080359060200190640100000000811115610cfc57600080fd5b820183602082011115610d0e57600080fd5b80359060200191846001830284011164010000000083111715610d3057600080fd5b91908080601f016020809104026020016040519081016040528093929190818152602001838380828437600081840152601f19601f82011690508083019250505050505050919291929080359060200190640100000000811115610d9357600080fd5b820183602082011115610da557600080fd5b80359060200191846001830284011164010000000083111715610dc757600080fd5b91908080601f016020809104026020016040519081016040528093929190818152602001838380828437600081840152601f19601f82011690508083019250505050505050919291929080359060200190640100000000811115610e2a57600080fd5b820183602082011115610e3c57600080fd5b80359060200191846001830284011164010000000083111715610e5e57600080fd5b91908080601f016020809104026020016040519081016040528093929190818152602001838380828437600081840152601f19601f82011690508083019250505050505050919291929080359060200190640100000000811115610ec157600080fd5b820183602082011115610ed357600080fd5b80359060200191846001830284011164010000000083111715610ef557600080fd5b91908080601f016020809104026020016040519081016040528093929190818152602001838380828437600081840152601f19601f820116905080830192505050505050509192919290505050611e89565b005b60008090506000600190505b60025481111515611469578280519060200120600160008381526020019081526020016000206001016040518082805460018160011615610100020316600290048015610fd95780601f10610fb7576101008083540402835291820191610fd9565b820191906000526020600020905b815481529060010190602001808311610fc5575b50509150506040518091039020141561145c57818060010192505060e060405190810160405280838152602001848152602001600160008481526020019081526020016000206002018054600181600116156101000203166002900480601f0160208091040260200160405190810160405280929190818152602001828054600181600116156101000203166002900480156110b65780601f1061108b576101008083540402835291602001916110b6565b820191906000526020600020905b81548152906001019060200180831161109957829003601f168201915b50505050508152602001600160008481526020019081526020016000206003018054600181600116156101000203166002900480601f01602080910402602001604051908101604052809291908181526020018280546001816001161561010002031660029004801561116a5780601f1061113f5761010080835404028352916020019161116a565b820191906000526020600020905b81548152906001019060200180831161114d57829003601f168201915b50505050508152602001600160008481526020019081526020016000206004018054600181600116156101000203166002900480601f01602080910402602001604051908101604052809291908181526020018280546001816001161561010002031660029004801561121e5780601f106111f35761010080835404028352916020019161121e565b820191906000526020600020905b81548152906001019060200180831161120157829003601f168201915b50505050508152602001600160008481526020019081526020016000206005018054600181600116156101000203166002900480601f0160208091040260200160405190810160405280929190818152602001828054600181600116156101000203166002900480156112d25780601f106112a7576101008083540402835291602001916112d2565b820191906000526020600020905b8154815290600101906020018083116112b557829003601f168201915b50505050508152602001600160008481526020019081526020016000206006018054600181600116156101000203166002900480601f0160208091040260200160405190810160405280929190818152602001828054600181600116156101000203166002900480156113865780601f1061135b57610100808354040283529160200191611386565b820191906000526020600020905b81548152906001019060200180831161136957829003601f168201915b50505050508152506000808481526020019081526020016000206000820151816000015560208201518160010190805190602001906113c69291906121b0565b5060408201518160020190805190602001906113e3929190612230565b5060608201518160030190805190602001906114009291906121b0565b50608082015181600401908051906020019061141d929190612230565b5060a082015181600501908051906020019061143a929190612230565b5060c0820151816006019080519060200190611457929190612230565b509050505b8080600101915050610f55565b505050565b6000602052806000526040600020600091509050806000015490806001018054600181600116156101000203166002900480601f0160208091040260200160405190810160405280929190818152602001828054600181600116156101000203166002900480156115205780601f106114f557610100808354040283529160200191611520565b820191906000526020600020905b81548152906001019060200180831161150357829003601f168201915b505050505090806002018054600181600116156101000203166002900480601f0160208091040260200160405190810160405280929190818152602001828054600181600116156101000203166002900480156115be5780601f10611593576101008083540402835291602001916115be565b820191906000526020600020905b8154815290600101906020018083116115a157829003601f168201915b505050505090806003018054600181600116156101000203166002900480601f01602080910402602001604051908101604052809291908181526020018280546001816001161561010002031660029004801561165c5780601f106116315761010080835404028352916020019161165c565b820191906000526020600020905b81548152906001019060200180831161163f57829003601f168201915b505050505090806004018054600181600116156101000203166002900480601f0160208091040260200160405190810160405280929190818152602001828054600181600116156101000203166002900480156116fa5780601f106116cf576101008083540402835291602001916116fa565b820191906000526020600020905b8154815290600101906020018083116116dd57829003601f168201915b505050505090806005018054600181600116156101000203166002900480601f0160208091040260200160405190810160405280929190818152602001828054600181600116156101000203166002900480156117985780601f1061176d57610100808354040283529160200191611798565b820191906000526020600020905b81548152906001019060200180831161177b57829003601f168201915b505050505090806006018054600181600116156101000203166002900480601f0160208091040260200160405190810160405280929190818152602001828054600181600116156101000203166002900480156118365780601f1061180b57610100808354040283529160200191611836565b820191906000526020600020905b81548152906001019060200180831161181957829003601f168201915b5050505050905087565b6002600081548092919060010191905055506060856040516020018082805190602001908083835b60208310151561188d5780518252602082019150602081019050602083039250611868565b6001836020036101000a03801982511681845116808217855250505050505090500191505060405160208183030381529060405290506060876118cf87611aa2565b6040516020018083805190602001908083835b60208310151561190757805182526020820191506020810190506020830392506118e2565b6001836020036101000a03801982511681845116808217855250505050505090500182805190602001908083835b60208310151561195a5780518252602082019150602081019050602083039250611935565b6001836020036101000a03801982511681845116808217855250505050505090500192505050604051602081830303815290604052905060e06040519081016040528060025481526020018381526020018a815260200182815260200186815260200185815260200184815250600160006002548152602001908152602001600020600082015181600001556020820151816001019080519060200190611a029291906121b0565b506040820151816002019080519060200190611a1f929190612230565b506060820151816003019080519060200190611a3c9291906121b0565b506080820151816004019080519060200190611a59929190612230565b5060a0820151816005019080519060200190611a76929190612230565b5060c0820151816006019080519060200190611a93929190612230565b50905050505050505050505050565b60608082905080915050919050565b60025481565b6001602052806000526040600020600091509050806000015490806001018054600181600116156101000203166002900480601f016020809104026020016040519081016040528092919081815260200182805460018160011615610100020316600290048015611b695780601f10611b3e57610100808354040283529160200191611b69565b820191906000526020600020905b815481529060010190602001808311611b4c57829003601f168201915b505050505090806002018054600181600116156101000203166002900480601f016020809104026020016040519081016040528092919081815260200182805460018160011615610100020316600290048015611c075780601f10611bdc57610100808354040283529160200191611c07565b820191906000526020600020905b815481529060010190602001808311611bea57829003601f168201915b505050505090806003018054600181600116156101000203166002900480601f016020809104026020016040519081016040528092919081815260200182805460018160011615610100020316600290048015611ca55780601f10611c7a57610100808354040283529160200191611ca5565b820191906000526020600020905b815481529060010190602001808311611c8857829003601f168201915b505050505090806004018054600181600116156101000203166002900480601f016020809104026020016040519081016040528092919081815260200182805460018160011615610100020316600290048015611d435780601f10611d1857610100808354040283529160200191611d43565b820191906000526020600020905b815481529060010190602001808311611d2657829003601f168201915b505050505090806005018054600181600116156101000203166002900480601f016020809104026020016040519081016040528092919081815260200182805460018160011615610100020316600290048015611de15780601f10611db657610100808354040283529160200191611de1565b820191906000526020600020905b815481529060010190602001808311611dc457829003601f168201915b505050505090806006018054600181600116156101000203166002900480601f016020809104026020016040519081016040528092919081815260200182805460018160011615610100020316600290048015611e7f5780601f10611e5457610100808354040283529160200191611e7f565b820191906000526020600020905b815481529060010190602001808311611e6257829003601f168201915b5050505050905087565b6000600190505b600254811115156121a9578480519060200120600160008381526020019081526020016000206001016040518082805460018160011615610100020316600290048015611f145780601f10611ef2576101008083540402835291820191611f14565b820191906000526020600020905b815481529060010190602001808311611f00575b50509150506040518091039020141561219c5760026000815480929190600101919050555060e0604051908101604052806002548152602001868152602001600160008481526020019081526020016000206002018054600181600116156101000203166002900480601f016020809104026020016040519081016040528092919081815260200182805460018160011615610100020316600290048015611ffd5780601f10611fd257610100808354040283529160200191611ffd565b820191906000526020600020905b815481529060010190602001808311611fe057829003601f168201915b50505050508152602001600160008481526020019081526020016000206003018054600181600116156101000203166002900480601f0160208091040260200160405190810160405280929190818152602001828054600181600116156101000203166002900480156120b15780601f10612086576101008083540402835291602001916120b1565b820191906000526020600020905b81548152906001019060200180831161209457829003601f168201915b50505050508152602001858152602001848152602001838152506001600060025481526020019081526020016000206000820151816000015560208201518160010190805190602001906121069291906121b0565b506040820151816002019080519060200190612123929190612230565b5060608201518160030190805190602001906121409291906121b0565b50608082015181600401908051906020019061215d929190612230565b5060a082015181600501908051906020019061217a929190612230565b5060c0820151816006019080519060200190612197929190612230565b509050505b8080600101915050611e90565b5050505050565b828054600181600116156101000203166002900490600052602060002090601f016020900481019282601f106121f157805160ff191683800117855561221f565b8280016001018555821561221f579182015b8281111561221e578251825591602001919060010190612203565b5b50905061222c91906122b0565b5090565b828054600181600116156101000203166002900490600052602060002090601f016020900481019282601f1061227157805160ff191683800117855561229f565b8280016001018555821561229f579182015b8281111561229e578251825591602001919060010190612283565b5b5090506122ac91906122b0565b5090565b6122d291905b808211156122ce5760008160009055506001016122b6565b5090565b9056fea165627a7a72305820f57c286095712a39116a3d984881b36c1025f97db8f8de5e2d3401c5876640b70029",
  "source": "pragma solidity 0.5.0;\n\n\ncontract PDS{\n\n\n\n  struct PDSdata{\n    uint id;\n    bytes UIN;\n    string _type;\n    bytes quality;\n    string weight;\n    string location;\n    string arrival;\n\n\n  }\n  mapping(uint => PDSdata) public tempPDSdatas;\n\n  mapping(uint => PDSdata) public PDSdatas;\n  uint public PDScount;\n\n  constructor() public{\n    PDScount = 0;\n  }\n\n  function convertingToString(string memory _a) public returns(string memory){\n  \n    string memory converted = string(_a);\n    return converted;\n  }\n  \n\n\n  function  addPDS(string memory _type,  string memory quality, string memory f_aadhar, string memory purist_aadhar, string memory weight, string memory location, string memory arrival) public {\n    PDScount++;\n    bytes memory UIN = abi.encodePacked(f_aadhar);\n    bytes memory qual = abi.encodePacked(quality, convertingToString(purist_aadhar));\n    \n    PDSdatas[PDScount] = PDSdata(PDScount, UIN, _type, qual, weight, location, arrival);\n\n  }\n\n  function printStatus(bytes memory UIN) public {\n    uint tempPDScount = 0;\n    for(uint i = 1; i<=PDScount;i++){\n      if(keccak256(PDSdatas[i].UIN)==keccak256(UIN)){\n        tempPDScount++;\n        tempPDSdatas[tempPDScount] = PDSdata(tempPDScount, UIN, PDSdatas[i]._type, PDSdatas[i].quality, PDSdatas[i].weight, PDSdatas[i].location, PDSdatas[i].arrival);\n\n      }\n    }\n  }\n\n\n  function warehouseUpdate(bytes memory UIN, string memory weight, string memory location, string memory arrival) public{\n    for(uint i = 1; i<=PDScount;i++){\n      if(keccak256(PDSdatas[i].UIN)==keccak256(UIN)){\n        PDScount++;\n        \n        PDSdatas[PDScount] = PDSdata(PDScount, UIN, PDSdatas[i]._type, PDSdatas[i].quality, weight, location, arrival);\n\n      }\n    }\n\n  }\n}\n\n",
  "sourcePath": "/home/praveen/pds-pragyanhack/contracts/PDS.sol",
  "compiler": {
    "name": "solc",
    "version": "0.5.0+commit.1d4f565a.Emscripten.clang"
  },
  "schemaVersion": "3.0.1",
  "updatedAt": "2019-01-19T12:43:24.195Z",
  "devdoc": {
    "methods": {}
  },
  "userdoc": {
    "methods": {}
  }
}