{
  "contractName": "PDS",
  "abi": [
    {
      "constant": true,
      "inputs": [
        {
          "name": "",
          "type": "uint256"
        }
      ],
      "name": "tempPDSdatas",
      "outputs": [
        {
          "name": "id",
          "type": "uint256"
        },
        {
          "name": "UIN",
          "type": "bytes"
        },
        {
          "name": "_type",
          "type": "string"
        },
        {
          "name": "quality",
          "type": "bytes"
        },
        {
          "name": "weight",
          "type": "string"
        },
        {
          "name": "location",
          "type": "string"
        },
        {
          "name": "arrival",
          "type": "string"
        }
      ],
      "payable": false,
      "stateMutability": "view",
      "type": "function",
      "signature": "0x2f3c41a8"
    },
    {
      "constant": true,
      "inputs": [],
      "name": "PDScount",
      "outputs": [
        {
          "name": "",
          "type": "uint256"
        }
      ],
      "payable": false,
      "stateMutability": "view",
      "type": "function",
      "signature": "0x8df1180e"
    },
    {
      "constant": true,
      "inputs": [
        {
          "name": "",
          "type": "uint256"
        }
      ],
      "name": "PDSdatas",
      "outputs": [
        {
          "name": "id",
          "type": "uint256"
        },
        {
          "name": "UIN",
          "type": "bytes"
        },
        {
          "name": "_type",
          "type": "string"
        },
        {
          "name": "quality",
          "type": "bytes"
        },
        {
          "name": "weight",
          "type": "string"
        },
        {
          "name": "location",
          "type": "string"
        },
        {
          "name": "arrival",
          "type": "string"
        }
      ],
      "payable": false,
      "stateMutability": "view",
      "type": "function",
      "signature": "0x97ffb86a"
    },
    {
      "inputs": [],
      "payable": false,
      "stateMutability": "nonpayable",
      "type": "constructor",
      "signature": "constructor"
    },
    {
      "constant": false,
      "inputs": [
        {
          "name": "_a",
          "type": "string"
        }
      ],
      "name": "convertingToString",
      "outputs": [
        {
          "name": "",
          "type": "string"
        }
      ],
      "payable": false,
      "stateMutability": "nonpayable",
      "type": "function",
      "signature": "0x50365fee"
    },
    {
      "constant": false,
      "inputs": [
        {
          "name": "_type",
          "type": "string"
        },
        {
          "name": "quality",
          "type": "string"
        },
        {
          "name": "f_aadhar",
          "type": "string"
        },
        {
          "name": "purist_aadhar",
          "type": "string"
        },
        {
          "name": "weight",
          "type": "string"
        },
        {
          "name": "location",
          "type": "string"
        },
        {
          "name": "arrival",
          "type": "string"
        }
      ],
      "name": "addPDS",
      "outputs": [],
      "payable": false,
      "stateMutability": "nonpayable",
      "type": "function",
      "signature": "0x39302a1b"
    },
    {
      "constant": false,
      "inputs": [
        {
          "name": "UIN",
          "type": "bytes"
        }
      ],
      "name": "printStatus",
      "outputs": [],
      "payable": false,
      "stateMutability": "nonpayable",
      "type": "function",
      "signature": "0x0798efb9"
    }
  ],
  "bytecode": "0x608060405234801561001057600080fd5b506001600281905550611d42806100286000396000f3fe608060405260043610610078576000357c0100000000000000000000000000000000000000000000000000000000900463ffffffff1680630798efb91461007d5780632f3c41a81461014557806339302a1b1461041c57806350365fee1461086e5780638df1180e146109af57806397ffb86a146109da575b600080fd5b34801561008957600080fd5b50610143600480360360208110156100a057600080fd5b81019080803590602001906401000000008111156100bd57600080fd5b8201836020820111156100cf57600080fd5b803590602001918460018302840111640100000000831117156100f157600080fd5b91908080601f016020809104026020016040519081016040528093929190818152602001838380828437600081840152601f19601f820116905080830192505050505050509192919290505050610cb1565b005b34801561015157600080fd5b5061017e6004803603602081101561016857600080fd5b81019080803590602001909291905050506111d6565b6040518088815260200180602001806020018060200180602001806020018060200187810387528d818151815260200191508051906020019080838360005b838110156101d85780820151818401526020810190506101bd565b50505050905090810190601f1680156102055780820380516001836020036101000a031916815260200191505b5087810386528c818151815260200191508051906020019080838360005b8381101561023e578082015181840152602081019050610223565b50505050905090810190601f16801561026b5780820380516001836020036101000a031916815260200191505b5087810385528b818151815260200191508051906020019080838360005b838110156102a4578082015181840152602081019050610289565b50505050905090810190601f1680156102d15780820380516001836020036101000a031916815260200191505b5087810384528a818151815260200191508051906020019080838360005b8381101561030a5780820151818401526020810190506102ef565b50505050905090810190601f1680156103375780820380516001836020036101000a031916815260200191505b50878103835289818151815260200191508051906020019080838360005b83811015610370578082015181840152602081019050610355565b50505050905090810190601f16801561039d5780820380516001836020036101000a031916815260200191505b50878103825288818151815260200191508051906020019080838360005b838110156103d65780820151818401526020810190506103bb565b50505050905090810190601f1680156104035780820380516001836020036101000a031916815260200191505b509d505050505050505050505050505060405180910390f35b34801561042857600080fd5b5061086c600480360360e081101561043f57600080fd5b810190808035906020019064010000000081111561045c57600080fd5b82018360208201111561046e57600080fd5b8035906020019184600183028401116401000000008311171561049057600080fd5b91908080601f016020809104026020016040519081016040528093929190818152602001838380828437600081840152601f19601f820116905080830192505050505050509192919290803590602001906401000000008111156104f357600080fd5b82018360208201111561050557600080fd5b8035906020019184600183028401116401000000008311171561052757600080fd5b91908080601f016020809104026020016040519081016040528093929190818152602001838380828437600081840152601f19601f8201169050808301925050505050505091929192908035906020019064010000000081111561058a57600080fd5b82018360208201111561059c57600080fd5b803590602001918460018302840111640100000000831117156105be57600080fd5b91908080601f016020809104026020016040519081016040528093929190818152602001838380828437600081840152601f19601f8201169050808301925050505050505091929192908035906020019064010000000081111561062157600080fd5b82018360208201111561063357600080fd5b8035906020019184600183028401116401000000008311171561065557600080fd5b91908080601f016020809104026020016040519081016040528093929190818152602001838380828437600081840152601f19601f820116905080830192505050505050509192919290803590602001906401000000008111156106b857600080fd5b8201836020820111156106ca57600080fd5b803590602001918460018302840111640100000000831117156106ec57600080fd5b91908080601f016020809104026020016040519081016040528093929190818152602001838380828437600081840152601f19601f8201169050808301925050505050505091929192908035906020019064010000000081111561074f57600080fd5b82018360208201111561076157600080fd5b8035906020019184600183028401116401000000008311171561078357600080fd5b91908080601f016020809104026020016040519081016040528093929190818152602001838380828437600081840152601f19601f820116905080830192505050505050509192919290803590602001906401000000008111156107e657600080fd5b8201836020820111156107f857600080fd5b8035906020019184600183028401116401000000008311171561081a57600080fd5b91908080601f016020809104026020016040519081016040528093929190818152602001838380828437600081840152601f19601f8201169050808301925050505050505091929192905050506115a8565b005b34801561087a57600080fd5b506109346004803603602081101561089157600080fd5b81019080803590602001906401000000008111156108ae57600080fd5b8201836020820111156108c057600080fd5b803590602001918460018302840111640100000000831117156108e257600080fd5b91908080601f016020809104026020016040519081016040528093929190818152602001838380828437600081840152601f19601f82011690508083019250505050505050919291929050505061180a565b6040518080602001828103825283818151815260200191508051906020019080838360005b83811015610974578082015181840152602081019050610959565b50505050905090810190601f1680156109a15780820380516001836020036101000a031916815260200191505b509250505060405180910390f35b3480156109bb57600080fd5b506109c4611819565b6040518082815260200191505060405180910390f35b3480156109e657600080fd5b50610a13600480360360208110156109fd57600080fd5b810190808035906020019092919050505061181f565b6040518088815260200180602001806020018060200180602001806020018060200187810387528d818151815260200191508051906020019080838360005b83811015610a6d578082015181840152602081019050610a52565b50505050905090810190601f168015610a9a5780820380516001836020036101000a031916815260200191505b5087810386528c818151815260200191508051906020019080838360005b83811015610ad3578082015181840152602081019050610ab8565b50505050905090810190601f168015610b005780820380516001836020036101000a031916815260200191505b5087810385528b818151815260200191508051906020019080838360005b83811015610b39578082015181840152602081019050610b1e565b50505050905090810190601f168015610b665780820380516001836020036101000a031916815260200191505b5087810384528a818151815260200191508051906020019080838360005b83811015610b9f578082015181840152602081019050610b84565b50505050905090810190601f168015610bcc5780820380516001836020036101000a031916815260200191505b50878103835289818151815260200191508051906020019080838360005b83811015610c05578082015181840152602081019050610bea565b50505050905090810190601f168015610c325780820380516001836020036101000a031916815260200191505b50878103825288818151815260200191508051906020019080838360005b83811015610c6b578082015181840152602081019050610c50565b50505050905090810190601f168015610c985780820380516001836020036101000a031916815260200191505b509d505050505050505050505050505060405180910390f35b60008090506000600190505b600254811115156111d1578280519060200120600160008381526020019081526020016000206001016040518082805460018160011615610100020316600290048015610d415780601f10610d1f576101008083540402835291820191610d41565b820191906000526020600020905b815481529060010190602001808311610d2d575b5050915050604051809103902014156111c457818060010192505060e060405190810160405280838152602001848152602001600160008481526020019081526020016000206002018054600181600116156101000203166002900480601f016020809104026020016040519081016040528092919081815260200182805460018160011615610100020316600290048015610e1e5780601f10610df357610100808354040283529160200191610e1e565b820191906000526020600020905b815481529060010190602001808311610e0157829003601f168201915b50505050508152602001600160008481526020019081526020016000206003018054600181600116156101000203166002900480601f016020809104026020016040519081016040528092919081815260200182805460018160011615610100020316600290048015610ed25780601f10610ea757610100808354040283529160200191610ed2565b820191906000526020600020905b815481529060010190602001808311610eb557829003601f168201915b50505050508152602001600160008481526020019081526020016000206004018054600181600116156101000203166002900480601f016020809104026020016040519081016040528092919081815260200182805460018160011615610100020316600290048015610f865780601f10610f5b57610100808354040283529160200191610f86565b820191906000526020600020905b815481529060010190602001808311610f6957829003601f168201915b50505050508152602001600160008481526020019081526020016000206005018054600181600116156101000203166002900480601f01602080910402602001604051908101604052809291908181526020018280546001816001161561010002031660029004801561103a5780601f1061100f5761010080835404028352916020019161103a565b820191906000526020600020905b81548152906001019060200180831161101d57829003601f168201915b50505050508152602001600160008481526020019081526020016000206006018054600181600116156101000203166002900480601f0160208091040260200160405190810160405280929190818152602001828054600181600116156101000203166002900480156110ee5780601f106110c3576101008083540402835291602001916110ee565b820191906000526020600020905b8154815290600101906020018083116110d157829003601f168201915b505050505081525060008084815260200190815260200160002060008201518160000155602082015181600101908051906020019061112e929190611bf1565b50604082015181600201908051906020019061114b929190611c71565b506060820151816003019080519060200190611168929190611bf1565b506080820151816004019080519060200190611185929190611c71565b5060a08201518160050190805190602001906111a2929190611c71565b5060c08201518160060190805190602001906111bf929190611c71565b509050505b8080600101915050610cbd565b505050565b6000602052806000526040600020600091509050806000015490806001018054600181600116156101000203166002900480601f0160208091040260200160405190810160405280929190818152602001828054600181600116156101000203166002900480156112885780601f1061125d57610100808354040283529160200191611288565b820191906000526020600020905b81548152906001019060200180831161126b57829003601f168201915b505050505090806002018054600181600116156101000203166002900480601f0160208091040260200160405190810160405280929190818152602001828054600181600116156101000203166002900480156113265780601f106112fb57610100808354040283529160200191611326565b820191906000526020600020905b81548152906001019060200180831161130957829003601f168201915b505050505090806003018054600181600116156101000203166002900480601f0160208091040260200160405190810160405280929190818152602001828054600181600116156101000203166002900480156113c45780601f10611399576101008083540402835291602001916113c4565b820191906000526020600020905b8154815290600101906020018083116113a757829003601f168201915b505050505090806004018054600181600116156101000203166002900480601f0160208091040260200160405190810160405280929190818152602001828054600181600116156101000203166002900480156114625780601f1061143757610100808354040283529160200191611462565b820191906000526020600020905b81548152906001019060200180831161144557829003601f168201915b505050505090806005018054600181600116156101000203166002900480601f0160208091040260200160405190810160405280929190818152602001828054600181600116156101000203166002900480156115005780601f106114d557610100808354040283529160200191611500565b820191906000526020600020905b8154815290600101906020018083116114e357829003601f168201915b505050505090806006018054600181600116156101000203166002900480601f01602080910402602001604051908101604052809291908181526020018280546001816001161561010002031660029004801561159e5780601f106115735761010080835404028352916020019161159e565b820191906000526020600020905b81548152906001019060200180831161158157829003601f168201915b5050505050905087565b6002600081548092919060010191905055506060856040516020018082805190602001908083835b6020831015156115f557805182526020820191506020810190506020830392506115d0565b6001836020036101000a03801982511681845116808217855250505050505090500191505060405160208183030381529060405290506060876116378761180a565b6040516020018083805190602001908083835b60208310151561166f578051825260208201915060208101905060208303925061164a565b6001836020036101000a03801982511681845116808217855250505050505090500182805190602001908083835b6020831015156116c2578051825260208201915060208101905060208303925061169d565b6001836020036101000a03801982511681845116808217855250505050505090500192505050604051602081830303815290604052905060e06040519081016040528060025481526020018381526020018a81526020018281526020018681526020018581526020018481525060016000600254815260200190815260200160002060008201518160000155602082015181600101908051906020019061176a929190611bf1565b506040820151816002019080519060200190611787929190611c71565b5060608201518160030190805190602001906117a4929190611bf1565b5060808201518160040190805190602001906117c1929190611c71565b5060a08201518160050190805190602001906117de929190611c71565b5060c08201518160060190805190602001906117fb929190611c71565b50905050505050505050505050565b60608082905080915050919050565b60025481565b6001602052806000526040600020600091509050806000015490806001018054600181600116156101000203166002900480601f0160208091040260200160405190810160405280929190818152602001828054600181600116156101000203166002900480156118d15780601f106118a6576101008083540402835291602001916118d1565b820191906000526020600020905b8154815290600101906020018083116118b457829003601f168201915b505050505090806002018054600181600116156101000203166002900480601f01602080910402602001604051908101604052809291908181526020018280546001816001161561010002031660029004801561196f5780601f106119445761010080835404028352916020019161196f565b820191906000526020600020905b81548152906001019060200180831161195257829003601f168201915b505050505090806003018054600181600116156101000203166002900480601f016020809104026020016040519081016040528092919081815260200182805460018160011615610100020316600290048015611a0d5780601f106119e257610100808354040283529160200191611a0d565b820191906000526020600020905b8154815290600101906020018083116119f057829003601f168201915b505050505090806004018054600181600116156101000203166002900480601f016020809104026020016040519081016040528092919081815260200182805460018160011615610100020316600290048015611aab5780601f10611a8057610100808354040283529160200191611aab565b820191906000526020600020905b815481529060010190602001808311611a8e57829003601f168201915b505050505090806005018054600181600116156101000203166002900480601f016020809104026020016040519081016040528092919081815260200182805460018160011615610100020316600290048015611b495780601f10611b1e57610100808354040283529160200191611b49565b820191906000526020600020905b815481529060010190602001808311611b2c57829003601f168201915b505050505090806006018054600181600116156101000203166002900480601f016020809104026020016040519081016040528092919081815260200182805460018160011615610100020316600290048015611be75780601f10611bbc57610100808354040283529160200191611be7565b820191906000526020600020905b815481529060010190602001808311611bca57829003601f168201915b5050505050905087565b828054600181600116156101000203166002900490600052602060002090601f016020900481019282601f10611c3257805160ff1916838001178555611c60565b82800160010185558215611c60579182015b82811115611c5f578251825591602001919060010190611c44565b5b509050611c6d9190611cf1565b5090565b828054600181600116156101000203166002900490600052602060002090601f016020900481019282601f10611cb257805160ff1916838001178555611ce0565b82800160010185558215611ce0579182015b82811115611cdf578251825591602001919060010190611cc4565b5b509050611ced9190611cf1565b5090565b611d1391905b80821115611d0f576000816000905550600101611cf7565b5090565b9056fea165627a7a723058203210bcf1c19908cf24c02cacc3515f9c02b3574ed656666670ae1215985254160029",
  "source": "pragma solidity 0.5.0;\n\n\ncontract PDS{\n\n\n\n  struct PDSdata{\n    uint id;\n    bytes UIN;\n    string _type;\n    bytes quality;\n    string weight;\n    string location;\n    string arrival;\n\n\n  }\n  mapping(uint => PDSdata) public tempPDSdatas;\n\n  mapping(uint => PDSdata) public PDSdatas;\n  uint public PDScount;\n\n  constructor() public{\n    PDScount = 1;\n  }\n\n  function convertingToString(string memory _a) public returns(string memory){\n  \n    string memory converted = string(_a);\n    return converted;\n  }\n  \n\n  function  addPDS(string memory _type,  string memory quality, string memory f_aadhar, string memory purist_aadhar, string memory weight, string memory location, string memory arrival) public {\n    PDScount++;\n    bytes memory UIN = abi.encodePacked(f_aadhar);\n    bytes memory qual = abi.encodePacked(quality, convertingToString(purist_aadhar));\n    \n    PDSdatas[PDScount] = PDSdata(PDScount, UIN, _type, qual, weight, location, arrival);\n\n  }\n\n  function printStatus(bytes memory UIN) public {\n    uint tempPDScount = 0;\n    for(uint i = 1; i<=PDScount;i++){\n      if(keccak256(PDSdatas[i].UIN)==keccak256(UIN)){\n        tempPDScount++;\n        tempPDSdatas[tempPDScount] = PDSdata(tempPDScount, UIN, PDSdatas[i]._type, PDSdatas[i].quality, PDSdatas[i].weight, PDSdatas[i].location, PDSdatas[i].arrival);\n\n      }\n    }\n  }\n}\n\n",
  "sourcePath": "/home/praveen/pds-pragyanhack/contracts/PDS.sol",
  "compiler": {
    "name": "solc",
    "version": "0.5.0+commit.1d4f565a.Emscripten.clang"
  },
  "schemaVersion": "3.0.1",
  "updatedAt": "2019-01-19T11:27:31.094Z",
  "devdoc": {
    "methods": {}
  },
  "userdoc": {
    "methods": {}
  }
}