{
  "contractName": "PDS",
  "abi": [
    {
      "constant": true,
      "inputs": [
        {
          "name": "",
          "type": "uint256"
        }
      ],
      "name": "tempPDSdatas",
      "outputs": [
        {
          "name": "id",
          "type": "uint256"
        },
        {
          "name": "UIN",
          "type": "bytes"
        },
        {
          "name": "_type",
          "type": "string"
        },
        {
          "name": "quality",
          "type": "bytes"
        },
        {
          "name": "weight",
          "type": "string"
        },
        {
          "name": "location",
          "type": "string"
        },
        {
          "name": "arrival",
          "type": "string"
        }
      ],
      "payable": false,
      "stateMutability": "view",
      "type": "function",
      "signature": "0x2f3c41a8"
    },
    {
      "constant": true,
      "inputs": [],
      "name": "PDScount",
      "outputs": [
        {
          "name": "",
          "type": "uint256"
        }
      ],
      "payable": false,
      "stateMutability": "view",
      "type": "function",
      "signature": "0x8df1180e"
    },
    {
      "constant": true,
      "inputs": [
        {
          "name": "",
          "type": "uint256"
        }
      ],
      "name": "PDSdatas",
      "outputs": [
        {
          "name": "id",
          "type": "uint256"
        },
        {
          "name": "UIN",
          "type": "bytes"
        },
        {
          "name": "_type",
          "type": "string"
        },
        {
          "name": "quality",
          "type": "bytes"
        },
        {
          "name": "weight",
          "type": "string"
        },
        {
          "name": "location",
          "type": "string"
        },
        {
          "name": "arrival",
          "type": "string"
        }
      ],
      "payable": false,
      "stateMutability": "view",
      "type": "function",
      "signature": "0x97ffb86a"
    },
    {
      "constant": true,
      "inputs": [],
      "name": "PDSlistcount",
      "outputs": [
        {
          "name": "",
          "type": "uint256"
        }
      ],
      "payable": false,
      "stateMutability": "view",
      "type": "function",
      "signature": "0x9e9696da"
    },
    {
      "inputs": [],
      "payable": false,
      "stateMutability": "nonpayable",
      "type": "constructor",
      "signature": "constructor"
    },
    {
      "constant": false,
      "inputs": [
        {
          "name": "_a",
          "type": "string"
        }
      ],
      "name": "convertingToString",
      "outputs": [
        {
          "name": "",
          "type": "string"
        }
      ],
      "payable": false,
      "stateMutability": "nonpayable",
      "type": "function",
      "signature": "0x50365fee"
    },
    {
      "constant": false,
      "inputs": [
        {
          "name": "time",
          "type": "string"
        },
        {
          "name": "_type",
          "type": "string"
        },
        {
          "name": "quality",
          "type": "string"
        },
        {
          "name": "f_aadhar",
          "type": "string"
        },
        {
          "name": "purist_aadhar",
          "type": "string"
        },
        {
          "name": "weight",
          "type": "string"
        },
        {
          "name": "location",
          "type": "string"
        },
        {
          "name": "arrival",
          "type": "string"
        }
      ],
      "name": "addPDS",
      "outputs": [],
      "payable": false,
      "stateMutability": "nonpayable",
      "type": "function",
      "signature": "0xed81aee3"
    },
    {
      "constant": false,
      "inputs": [
        {
          "name": "UIN",
          "type": "bytes"
        }
      ],
      "name": "printStatus",
      "outputs": [
        {
          "name": "",
          "type": "bytes[]"
        },
        {
          "name": "",
          "type": "string[]"
        },
        {
          "name": "",
          "type": "bytes[]"
        },
        {
          "name": "",
          "type": "string[]"
        },
        {
          "name": "",
          "type": "string[]"
        },
        {
          "name": "",
          "type": "string[]"
        }
      ],
      "payable": false,
      "stateMutability": "nonpayable",
      "type": "function",
      "signature": "0x0798efb9"
    },
    {
      "constant": false,
      "inputs": [
        {
          "name": "UIN",
          "type": "bytes"
        },
        {
          "name": "quality",
          "type": "bytes"
        },
        {
          "name": "weight",
          "type": "string"
        },
        {
          "name": "location",
          "type": "string"
        },
        {
          "name": "arrival",
          "type": "string"
        }
      ],
      "name": "warehouseUpdate",
      "outputs": [],
      "payable": false,
      "stateMutability": "nonpayable",
      "type": "function",
      "signature": "0x9403cdff"
    }
  ],
  "bytecode": "0x608060405234801561001057600080fd5b506000600281905550611f9d806100286000396000f3fe60806040526004361061008e576000357c0100000000000000000000000000000000000000000000000000000000900463ffffffff1680630798efb9146100935780632f3c41a8146100d557806350365fee146101185780638df1180e146101555780639403cdff1461018057806397ffb86a146101a95780639e9696da146101ec578063ed81aee314610217575b600080fd5b34801561009f57600080fd5b506100ba60048036036100b59190810190611812565b610240565b6040516100cc96959493929190611cab565b60405180910390f35b3480156100e157600080fd5b506100fc60048036036100f79190810190611af5565b610934565b60405161010f9796959493929190611d73565b60405180910390f35b34801561012457600080fd5b5061013f600480360361013a9190810190611942565b610d06565b60405161014c9190611d36565b60405180910390f35b34801561016157600080fd5b5061016a610d15565b6040516101779190611d58565b60405180910390f35b34801561018c57600080fd5b506101a760048036036101a29190810190611853565b610d1b565b005b3480156101b557600080fd5b506101d060048036036101cb9190810190611af5565b610f95565b6040516101e39796959493929190611d73565b60405180910390f35b3480156101f857600080fd5b50610201611367565b60405161020e9190611d58565b60405180910390f35b34801561022357600080fd5b5061023e60048036036102399190810190611983565b61136d565b005b606080606080606080606060025460405190808252806020026020018201604052801561028157816020015b606081526020019060019003908161026c5790505b50905060606002546040519080825280602002602001820160405280156102bc57816020015b60608152602001906001900390816102a75790505b50905060606002546040519080825280602002602001820160405280156102f757816020015b60608152602001906001900390816102e25790505b509050606060025460405190808252806020026020018201604052801561033257816020015b606081526020019060019003908161031d5790505b509050606060025460405190808252806020026020018201604052801561036d57816020015b60608152602001906001900390816103585790505b50905060606002546040519080825280602002602001820160405280156103a857816020015b60608152602001906001900390816103935790505b50905060006001905060025481111515610923578d805190602001206001600083815260200190815260200160002060010160405180828054600181600116156101000203166002900480156104355780601f10610413576101008083540402835291820191610435565b820191906000526020600020905b815481529060010190602001808311610421575b50509150506040518091039020141561090557600160008281526020019081526020016000206001018054600181600116156101000203166002900480601f0160208091040260200160405190810160405280929190818152602001828054600181600116156101000203166002900480156104f25780601f106104c7576101008083540402835291602001916104f2565b820191906000526020600020905b8154815290600101906020018083116104d557829003601f168201915b5050505050878281518110151561050557fe5b90602001906020020181905250600160008281526020019081526020016000206002018054600181600116156101000203166002900480601f0160208091040260200160405190810160405280929190818152602001828054600181600116156101000203166002900480156105bc5780601f10610591576101008083540402835291602001916105bc565b820191906000526020600020905b81548152906001019060200180831161059f57829003601f168201915b505050505086828151811015156105cf57fe5b90602001906020020181905250600160008281526020019081526020016000206003018054600181600116156101000203166002900480601f0160208091040260200160405190810160405280929190818152602001828054600181600116156101000203166002900480156106865780601f1061065b57610100808354040283529160200191610686565b820191906000526020600020905b81548152906001019060200180831161066957829003601f168201915b5050505050858281518110151561069957fe5b90602001906020020181905250600160008281526020019081526020016000206004018054600181600116156101000203166002900480601f0160208091040260200160405190810160405280929190818152602001828054600181600116156101000203166002900480156107505780601f1061072557610100808354040283529160200191610750565b820191906000526020600020905b81548152906001019060200180831161073357829003601f168201915b5050505050848281518110151561076357fe5b90602001906020020181905250600160008281526020019081526020016000206005018054600181600116156101000203166002900480601f01602080910402602001604051908101604052809291908181526020018280546001816001161561010002031660029004801561081a5780601f106107ef5761010080835404028352916020019161081a565b820191906000526020600020905b8154815290600101906020018083116107fd57829003601f168201915b5050505050838281518110151561082d57fe5b90602001906020020181905250600160008281526020019081526020016000206006018054600181600116156101000203166002900480601f0160208091040260200160405190810160405280929190818152602001828054600181600116156101000203166002900480156108e45780601f106108b9576101008083540402835291602001916108e4565b820191906000526020600020905b8154815290600101906020018083116108c757829003601f168201915b505050505082828151811015156108f757fe5b906020019060200201819052505b8686868686869c509c509c509c509c509c505050505050505061092b565b505050505050505b91939550919395565b6000602052806000526040600020600091509050806000015490806001018054600181600116156101000203166002900480601f0160208091040260200160405190810160405280929190818152602001828054600181600116156101000203166002900480156109e65780601f106109bb576101008083540402835291602001916109e6565b820191906000526020600020905b8154815290600101906020018083116109c957829003601f168201915b505050505090806002018054600181600116156101000203166002900480601f016020809104026020016040519081016040528092919081815260200182805460018160011615610100020316600290048015610a845780601f10610a5957610100808354040283529160200191610a84565b820191906000526020600020905b815481529060010190602001808311610a6757829003601f168201915b505050505090806003018054600181600116156101000203166002900480601f016020809104026020016040519081016040528092919081815260200182805460018160011615610100020316600290048015610b225780601f10610af757610100808354040283529160200191610b22565b820191906000526020600020905b815481529060010190602001808311610b0557829003601f168201915b505050505090806004018054600181600116156101000203166002900480601f016020809104026020016040519081016040528092919081815260200182805460018160011615610100020316600290048015610bc05780601f10610b9557610100808354040283529160200191610bc0565b820191906000526020600020905b815481529060010190602001808311610ba357829003601f168201915b505050505090806005018054600181600116156101000203166002900480601f016020809104026020016040519081016040528092919081815260200182805460018160011615610100020316600290048015610c5e5780601f10610c3357610100808354040283529160200191610c5e565b820191906000526020600020905b815481529060010190602001808311610c4157829003601f168201915b505050505090806006018054600181600116156101000203166002900480601f016020809104026020016040519081016040528092919081815260200182805460018160011615610100020316600290048015610cfc5780601f10610cd157610100808354040283529160200191610cfc565b820191906000526020600020905b815481529060010190602001808311610cdf57829003601f168201915b5050505050905087565b60608082905080915050919050565b60025481565b6000600190505b60025481111515610f8d578580519060200120600160008381526020019081526020016000206001016040518082805460018160011615610100020316600290048015610da65780601f10610d84576101008083540402835291820191610da6565b820191906000526020600020905b815481529060010190602001808311610d92575b505091505060405180910390201415610f805760026000815480929190600101919050555060e0604051908101604052806002548152602001878152602001600160008481526020019081526020016000206002018054600181600116156101000203166002900480601f016020809104026020016040519081016040528092919081815260200182805460018160011615610100020316600290048015610e8f5780601f10610e6457610100808354040283529160200191610e8f565b820191906000526020600020905b815481529060010190602001808311610e7257829003601f168201915b5050505050815260200186815260200185815260200184815260200183815250600160006002548152602001908152602001600020600082015181600001556020820151816001019080519060200190610eea92919061162d565b506040820151816002019080519060200190610f079291906116ad565b506060820151816003019080519060200190610f2492919061162d565b506080820151816004019080519060200190610f419291906116ad565b5060a0820151816005019080519060200190610f5e9291906116ad565b5060c0820151816006019080519060200190610f7b9291906116ad565b509050505b8080600101915050610d22565b505050505050565b6001602052806000526040600020600091509050806000015490806001018054600181600116156101000203166002900480601f0160208091040260200160405190810160405280929190818152602001828054600181600116156101000203166002900480156110475780601f1061101c57610100808354040283529160200191611047565b820191906000526020600020905b81548152906001019060200180831161102a57829003601f168201915b505050505090806002018054600181600116156101000203166002900480601f0160208091040260200160405190810160405280929190818152602001828054600181600116156101000203166002900480156110e55780601f106110ba576101008083540402835291602001916110e5565b820191906000526020600020905b8154815290600101906020018083116110c857829003601f168201915b505050505090806003018054600181600116156101000203166002900480601f0160208091040260200160405190810160405280929190818152602001828054600181600116156101000203166002900480156111835780601f1061115857610100808354040283529160200191611183565b820191906000526020600020905b81548152906001019060200180831161116657829003601f168201915b505050505090806004018054600181600116156101000203166002900480601f0160208091040260200160405190810160405280929190818152602001828054600181600116156101000203166002900480156112215780601f106111f657610100808354040283529160200191611221565b820191906000526020600020905b81548152906001019060200180831161120457829003601f168201915b505050505090806005018054600181600116156101000203166002900480601f0160208091040260200160405190810160405280929190818152602001828054600181600116156101000203166002900480156112bf5780601f10611294576101008083540402835291602001916112bf565b820191906000526020600020905b8154815290600101906020018083116112a257829003601f168201915b505050505090806006018054600181600116156101000203166002900480601f01602080910402602001604051908101604052809291908181526020018280546001816001161561010002031660029004801561135d5780601f106113325761010080835404028352916020019161135d565b820191906000526020600020905b81548152906001019060200180831161134057829003601f168201915b5050505050905087565b60035481565b60026000815480929190600101919050555060608861138b87610d06565b6040516020018083805190602001908083835b6020831015156113c3578051825260208201915060208101905060208303925061139e565b6001836020036101000a03801982511681845116808217855250505050505090500182805190602001908083835b60208310151561141657805182526020820191506020810190506020830392506113f1565b6001836020036101000a03801982511681845116808217855250505050505090500192505050604051602081830303815290604052905060608761145987610d06565b6040516020018083805190602001908083835b602083101515611491578051825260208201915060208101905060208303925061146c565b6001836020036101000a03801982511681845116808217855250505050505090500182805190602001908083835b6020831015156114e457805182526020820191506020810190506020830392506114bf565b6001836020036101000a03801982511681845116808217855250505050505090500192505050604051602081830303815290604052905060e06040519081016040528060025481526020018381526020018a81526020018281526020018681526020018581526020018481525060016000600254815260200190815260200160002060008201518160000155602082015181600101908051906020019061158c92919061162d565b5060408201518160020190805190602001906115a99291906116ad565b5060608201518160030190805190602001906115c692919061162d565b5060808201518160040190805190602001906115e39291906116ad565b5060a08201518160050190805190602001906116009291906116ad565b5060c082015181600601908051906020019061161d9291906116ad565b5090505050505050505050505050565b828054600181600116156101000203166002900490600052602060002090601f016020900481019282601f1061166e57805160ff191683800117855561169c565b8280016001018555821561169c579182015b8281111561169b578251825591602001919060010190611680565b5b5090506116a9919061172d565b5090565b828054600181600116156101000203166002900490600052602060002090601f016020900481019282601f106116ee57805160ff191683800117855561171c565b8280016001018555821561171c579182015b8281111561171b578251825591602001919060010190611700565b5b509050611729919061172d565b5090565b61174f91905b8082111561174b576000816000905550600101611733565b5090565b90565b600082601f830112151561176557600080fd5b813561177861177382611e39565b611e0c565b9150808252602083016020830185838301111561179457600080fd5b61179f838284611f10565b50505092915050565b600082601f83011215156117bb57600080fd5b81356117ce6117c982611e65565b611e0c565b915080825260208301602083018583830111156117ea57600080fd5b6117f5838284611f10565b50505092915050565b600061180a8235611f06565b905092915050565b60006020828403121561182457600080fd5b600082013567ffffffffffffffff81111561183e57600080fd5b61184a84828501611752565b91505092915050565b600080600080600060a0868803121561186b57600080fd5b600086013567ffffffffffffffff81111561188557600080fd5b61189188828901611752565b955050602086013567ffffffffffffffff8111156118ae57600080fd5b6118ba88828901611752565b945050604086013567ffffffffffffffff8111156118d757600080fd5b6118e3888289016117a8565b935050606086013567ffffffffffffffff81111561190057600080fd5b61190c888289016117a8565b925050608086013567ffffffffffffffff81111561192957600080fd5b611935888289016117a8565b9150509295509295909350565b60006020828403121561195457600080fd5b600082013567ffffffffffffffff81111561196e57600080fd5b61197a848285016117a8565b91505092915050565b600080600080600080600080610100898b0312156119a057600080fd5b600089013567ffffffffffffffff8111156119ba57600080fd5b6119c68b828c016117a8565b985050602089013567ffffffffffffffff8111156119e357600080fd5b6119ef8b828c016117a8565b975050604089013567ffffffffffffffff811115611a0c57600080fd5b611a188b828c016117a8565b965050606089013567ffffffffffffffff811115611a3557600080fd5b611a418b828c016117a8565b955050608089013567ffffffffffffffff811115611a5e57600080fd5b611a6a8b828c016117a8565b94505060a089013567ffffffffffffffff811115611a8757600080fd5b611a938b828c016117a8565b93505060c089013567ffffffffffffffff811115611ab057600080fd5b611abc8b828c016117a8565b92505060e089013567ffffffffffffffff811115611ad957600080fd5b611ae58b828c016117a8565b9150509295985092959890939650565b600060208284031215611b0757600080fd5b6000611b15848285016117fe565b91505092915050565b6000611b2982611eab565b80845260208401935083602082028501611b4285611e91565b60005b84811015611b7b578383038852611b5d838351611bfa565b9250611b6882611ee2565b9150602088019750600181019050611b45565b508196508694505050505092915050565b6000611b9782611eb6565b80845260208401935083602082028501611bb085611e9e565b60005b84811015611be9578383038852611bcb838351611c66565b9250611bd682611eef565b9150602088019750600181019050611bb3565b508196508694505050505092915050565b6000611c0582611ec1565b808452611c19816020860160208601611f1f565b611c2281611f52565b602085010191505092915050565b6000611c3b82611ed7565b808452611c4f816020860160208601611f1f565b611c5881611f52565b602085010191505092915050565b6000611c7182611ecc565b808452611c85816020860160208601611f1f565b611c8e81611f52565b602085010191505092915050565b611ca581611efc565b82525050565b600060c0820190508181036000830152611cc58189611b1e565b90508181036020830152611cd98188611b8c565b90508181036040830152611ced8187611b1e565b90508181036060830152611d018186611b8c565b90508181036080830152611d158185611b8c565b905081810360a0830152611d298184611b8c565b9050979650505050505050565b60006020820190508181036000830152611d508184611c30565b905092915050565b6000602082019050611d6d6000830184611c9c565b92915050565b600060e082019050611d88600083018a611c9c565b8181036020830152611d9a8189611bfa565b90508181036040830152611dae8188611c66565b90508181036060830152611dc28187611bfa565b90508181036080830152611dd68186611c66565b905081810360a0830152611dea8185611c66565b905081810360c0830152611dfe8184611c66565b905098975050505050505050565b6000604051905081810181811067ffffffffffffffff82111715611e2f57600080fd5b8060405250919050565b600067ffffffffffffffff821115611e5057600080fd5b601f19601f8301169050602081019050919050565b600067ffffffffffffffff821115611e7c57600080fd5b601f19601f8301169050602081019050919050565b6000602082019050919050565b6000602082019050919050565b600081519050919050565b600081519050919050565b600081519050919050565b600081519050919050565b600081519050919050565b6000602082019050919050565b6000602082019050919050565b6000819050919050565b6000819050919050565b82818337600083830152505050565b60005b83811015611f3d578082015181840152602081019050611f22565b83811115611f4c576000848401525b50505050565b6000601f19601f830116905091905056fea265627a7a7230582061a52e125dd0bb5dc8de11f263466bd0e940c7132d4a750231ecd4c727851a7c6c6578706572696d656e74616cf50037",
  "source": "pragma solidity 0.5.0;\npragma experimental ABIEncoderV2;\n\ncontract PDS{\n\n\n\n  struct PDSdata{\n    uint id;\n    bytes UIN;\n    string _type;\n    bytes quality;\n    string weight;\n    string location;\n    string arrival;\n\n\n  }\n  mapping(uint => PDSdata) public tempPDSdatas;\n\n  mapping(uint => PDSdata) public PDSdatas;\n  uint public PDScount;\n\n  // mapping(bytes=>(mapping(uiint->PDSdata)public)) public PDSlist;\n  uint public PDSlistcount; \n\n\n  constructor() public{\n    PDScount = 0;\n  }\n\n  function convertingToString(string memory _a) public returns(string memory){\n  \n    string memory converted = string(_a);\n    return converted;\n  }\n  \n\n\n  function  addPDS(string memory time, string memory _type,  string memory quality, string memory f_aadhar, string memory purist_aadhar, string memory weight, string memory location, string memory arrival) public {\n    PDScount++;\n    bytes memory UIN = abi.encodePacked(time, convertingToString(f_aadhar));\n    bytes memory qual = abi.encodePacked(quality, convertingToString(purist_aadhar));\n    \n    PDSdatas[PDScount] = PDSdata(PDScount, UIN, _type, qual, weight, location, arrival);\n\n  }\n\n  function printStatus(bytes memory UIN) public returns (bytes[] memory, string[] memory, bytes[] memory, string[] memory, string[] memory, string[] memory){\n    // uint tempPDScount = 0;\n \n\n    bytes[] memory uins = new bytes[](PDScount);\n\n    string[] memory _types = new string[](PDScount);\n\n    bytes[] memory qualities = new bytes[](PDScount);\n\n    string[] memory weights = new string[](PDScount);\n\n    string[] memory locations = new string[](PDScount);\n\n    string[] memory arrivals = new string[](PDScount);\n\n  \n    for(uint i = 1; i<=PDScount;i++){\n      if(keccak256(PDSdatas[i].UIN)==keccak256(UIN)){\n        uins[i] = PDSdatas[i].UIN;\n        _types[i] = PDSdatas[i]._type;\n        qualities[i] = PDSdatas[i].quality;\n        weights[i] = PDSdatas[i].weight;\n        locations[i] = PDSdatas[i].location;\n        arrivals[i] = PDSdatas[i].arrival;\n\n        \n        \n\n      }\n      return (uins, _types, qualities, weights, locations, arrivals);\n    }\n  }\n\n  // function getUINsbykey() public {\n  //   for(uint i=1;i<=PDScount;i++){\n\n\n\n\n  //   }\n  // }\n\n\n  function warehouseUpdate(bytes memory UIN, bytes memory quality, string memory weight, string memory location, string memory arrival) public{\n    for(uint i = 1; i<=PDScount;i++){\n      if(keccak256(PDSdatas[i].UIN)==keccak256(UIN)){\n        PDScount++;\n        \n        PDSdatas[PDScount] = PDSdata(PDScount, UIN, PDSdatas[i]._type, quality, weight, location, arrival);\n\n      }\n    }\n\n  }\n}\n\n",
  "sourcePath": "/home/praveen/pds-pragyanhack/pragyan-hack-2019/contracts/PDS.sol",
  "compiler": {
    "name": "solc",
    "version": "0.5.0+commit.1d4f565a.Emscripten.clang"
  },
  "schemaVersion": "3.0.1",
  "updatedAt": "2019-01-19T20:49:15.835Z",
  "devdoc": {
    "methods": {}
  },
  "userdoc": {
    "methods": {}
  }
}