{
  "contractName": "PDS",
  "abi": [
    {
      "constant": true,
      "inputs": [
        {
          "name": "",
          "type": "uint256"
        }
      ],
      "name": "tempPDSdatas",
      "outputs": [
        {
          "name": "id",
          "type": "uint256"
        },
        {
          "name": "UIN",
          "type": "string"
        },
        {
          "name": "_type",
          "type": "string"
        },
        {
          "name": "quality",
          "type": "string"
        },
        {
          "name": "weight",
          "type": "string"
        },
        {
          "name": "location",
          "type": "string"
        },
        {
          "name": "arrival",
          "type": "string"
        }
      ],
      "payable": false,
      "stateMutability": "view",
      "type": "function",
      "signature": "0x2f3c41a8"
    },
    {
      "constant": true,
      "inputs": [],
      "name": "PDScount",
      "outputs": [
        {
          "name": "",
          "type": "uint256"
        }
      ],
      "payable": false,
      "stateMutability": "view",
      "type": "function",
      "signature": "0x8df1180e"
    },
    {
      "constant": true,
      "inputs": [
        {
          "name": "",
          "type": "uint256"
        }
      ],
      "name": "PDSdatas",
      "outputs": [
        {
          "name": "id",
          "type": "uint256"
        },
        {
          "name": "UIN",
          "type": "string"
        },
        {
          "name": "_type",
          "type": "string"
        },
        {
          "name": "quality",
          "type": "string"
        },
        {
          "name": "weight",
          "type": "string"
        },
        {
          "name": "location",
          "type": "string"
        },
        {
          "name": "arrival",
          "type": "string"
        }
      ],
      "payable": false,
      "stateMutability": "view",
      "type": "function",
      "signature": "0x97ffb86a"
    },
    {
      "constant": true,
      "inputs": [],
      "name": "PDSlistcount",
      "outputs": [
        {
          "name": "",
          "type": "uint256"
        }
      ],
      "payable": false,
      "stateMutability": "view",
      "type": "function",
      "signature": "0x9e9696da"
    },
    {
      "inputs": [],
      "payable": false,
      "stateMutability": "nonpayable",
      "type": "constructor",
      "signature": "constructor"
    },
    {
      "constant": false,
      "inputs": [
        {
          "name": "_a",
          "type": "string"
        }
      ],
      "name": "convertingToString",
      "outputs": [
        {
          "name": "",
          "type": "string"
        }
      ],
      "payable": false,
      "stateMutability": "nonpayable",
      "type": "function",
      "signature": "0x50365fee"
    },
    {
      "constant": false,
      "inputs": [
        {
          "name": "time",
          "type": "string"
        },
        {
          "name": "_type",
          "type": "string"
        },
        {
          "name": "quality",
          "type": "string"
        },
        {
          "name": "f_aadhar",
          "type": "string"
        },
        {
          "name": "purist_aadhar",
          "type": "string"
        },
        {
          "name": "weight",
          "type": "string"
        },
        {
          "name": "location",
          "type": "string"
        },
        {
          "name": "arrival",
          "type": "string"
        }
      ],
      "name": "addPDS",
      "outputs": [],
      "payable": false,
      "stateMutability": "nonpayable",
      "type": "function",
      "signature": "0xed81aee3"
    },
    {
      "constant": false,
      "inputs": [
        {
          "name": "a",
          "type": "string"
        },
        {
          "name": "b",
          "type": "string"
        }
      ],
      "name": "compareStrings",
      "outputs": [
        {
          "name": "",
          "type": "bool"
        }
      ],
      "payable": false,
      "stateMutability": "nonpayable",
      "type": "function",
      "signature": "0xbed34bba"
    },
    {
      "constant": false,
      "inputs": [
        {
          "name": "UIN",
          "type": "string"
        }
      ],
      "name": "printStatus",
      "outputs": [
        {
          "name": "",
          "type": "string[]"
        },
        {
          "name": "",
          "type": "string[]"
        },
        {
          "name": "",
          "type": "string[]"
        },
        {
          "name": "",
          "type": "string[]"
        },
        {
          "name": "",
          "type": "string[]"
        },
        {
          "name": "",
          "type": "string[]"
        }
      ],
      "payable": false,
      "stateMutability": "nonpayable",
      "type": "function",
      "signature": "0x9ae62b98"
    },
    {
      "constant": false,
      "inputs": [
        {
          "name": "UIN",
          "type": "string"
        },
        {
          "name": "quality",
          "type": "string"
        },
        {
          "name": "weight",
          "type": "string"
        },
        {
          "name": "location",
          "type": "string"
        },
        {
          "name": "arrival",
          "type": "string"
        }
      ],
      "name": "warehouseUpdate",
      "outputs": [],
      "payable": false,
      "stateMutability": "nonpayable",
      "type": "function",
      "signature": "0x41c39c47"
    }
  ],
  "bytecode": "0x608060405234801561001057600080fd5b506000600281905550611e07806100286000396000f3fe608060405260043610610099576000357c0100000000000000000000000000000000000000000000000000000000900463ffffffff1680632f3c41a81461009e57806341c39c47146100e157806350365fee1461010a5780638df1180e1461014757806397ffb86a146101725780639ae62b98146101b55780639e9696da146101f7578063bed34bba14610222578063ed81aee31461025f575b600080fd5b3480156100aa57600080fd5b506100c560048036036100c09190810190611a29565b610288565b6040516100d89796959493929190611c2d565b60405180910390f35b3480156100ed57600080fd5b50610108600480360361010391908101906117c8565b61065a565b005b34801561011657600080fd5b50610131600480360361012c919081019061171b565b610909565b60405161013e9190611bf0565b60405180910390f35b34801561015357600080fd5b5061015c610918565b6040516101699190611c12565b60405180910390f35b34801561017e57600080fd5b5061019960048036036101949190810190611a29565b61091e565b6040516101ac9796959493929190611c2d565b60405180910390f35b3480156101c157600080fd5b506101dc60048036036101d7919081019061171b565b610cf0565b6040516101ee96959493929190611b4a565b60405180910390f35b34801561020357600080fd5b5061020c611415565b6040516102199190611c12565b60405180910390f35b34801561022e57600080fd5b506102496004803603610244919081019061175c565b61141b565b6040516102569190611bd5565b60405180910390f35b34801561026b57600080fd5b50610286600480360361028191908101906118b7565b611474565b005b6000602052806000526040600020600091509050806000015490806001018054600181600116156101000203166002900480601f01602080910402602001604051908101604052809291908181526020018280546001816001161561010002031660029004801561033a5780601f1061030f5761010080835404028352916020019161033a565b820191906000526020600020905b81548152906001019060200180831161031d57829003601f168201915b505050505090806002018054600181600116156101000203166002900480601f0160208091040260200160405190810160405280929190818152602001828054600181600116156101000203166002900480156103d85780601f106103ad576101008083540402835291602001916103d8565b820191906000526020600020905b8154815290600101906020018083116103bb57829003601f168201915b505050505090806003018054600181600116156101000203166002900480601f0160208091040260200160405190810160405280929190818152602001828054600181600116156101000203166002900480156104765780601f1061044b57610100808354040283529160200191610476565b820191906000526020600020905b81548152906001019060200180831161045957829003601f168201915b505050505090806004018054600181600116156101000203166002900480601f0160208091040260200160405190810160405280929190818152602001828054600181600116156101000203166002900480156105145780601f106104e957610100808354040283529160200191610514565b820191906000526020600020905b8154815290600101906020018083116104f757829003601f168201915b505050505090806005018054600181600116156101000203166002900480601f0160208091040260200160405190810160405280929190818152602001828054600181600116156101000203166002900480156105b25780601f10610587576101008083540402835291602001916105b2565b820191906000526020600020905b81548152906001019060200180831161059557829003601f168201915b505050505090806006018054600181600116156101000203166002900480601f0160208091040260200160405190810160405280929190818152602001828054600181600116156101000203166002900480156106505780601f1061062557610100808354040283529160200191610650565b820191906000526020600020905b81548152906001019060200180831161063357829003601f168201915b5050505050905087565b6000600190505b6002548111151561090157610724600160008381526020019081526020016000206001018054600181600116156101000203166002900480601f0160208091040260200160405190810160405280929190818152602001828054600181600116156101000203166002900480156107195780601f106106ee57610100808354040283529160200191610719565b820191906000526020600020905b8154815290600101906020018083116106fc57829003601f168201915b50505050508761141b565b156108f45760026000815480929190600101919050555060e0604051908101604052806002548152602001878152602001600160008481526020019081526020016000206002018054600181600116156101000203166002900480601f0160208091040260200160405190810160405280929190818152602001828054600181600116156101000203166002900480156107ff5780601f106107d4576101008083540402835291602001916107ff565b820191906000526020600020905b8154815290600101906020018083116107e257829003601f168201915b505050505081526020018681526020018581526020018481526020018381525060016000600254815260200190815260200160002060008201518160000155602082015181600101908051906020019061085a92919061160c565b50604082015181600201908051906020019061087792919061160c565b50606082015181600301908051906020019061089492919061160c565b5060808201518160040190805190602001906108b192919061160c565b5060a08201518160050190805190602001906108ce92919061160c565b5060c08201518160060190805190602001906108eb92919061160c565b50905050610901565b8080600101915050610661565b505050505050565b60608082905080915050919050565b60025481565b6001602052806000526040600020600091509050806000015490806001018054600181600116156101000203166002900480601f0160208091040260200160405190810160405280929190818152602001828054600181600116156101000203166002900480156109d05780601f106109a5576101008083540402835291602001916109d0565b820191906000526020600020905b8154815290600101906020018083116109b357829003601f168201915b505050505090806002018054600181600116156101000203166002900480601f016020809104026020016040519081016040528092919081815260200182805460018160011615610100020316600290048015610a6e5780601f10610a4357610100808354040283529160200191610a6e565b820191906000526020600020905b815481529060010190602001808311610a5157829003601f168201915b505050505090806003018054600181600116156101000203166002900480601f016020809104026020016040519081016040528092919081815260200182805460018160011615610100020316600290048015610b0c5780601f10610ae157610100808354040283529160200191610b0c565b820191906000526020600020905b815481529060010190602001808311610aef57829003601f168201915b505050505090806004018054600181600116156101000203166002900480601f016020809104026020016040519081016040528092919081815260200182805460018160011615610100020316600290048015610baa5780601f10610b7f57610100808354040283529160200191610baa565b820191906000526020600020905b815481529060010190602001808311610b8d57829003601f168201915b505050505090806005018054600181600116156101000203166002900480601f016020809104026020016040519081016040528092919081815260200182805460018160011615610100020316600290048015610c485780601f10610c1d57610100808354040283529160200191610c48565b820191906000526020600020905b815481529060010190602001808311610c2b57829003601f168201915b505050505090806006018054600181600116156101000203166002900480601f016020809104026020016040519081016040528092919081815260200182805460018160011615610100020316600290048015610ce65780601f10610cbb57610100808354040283529160200191610ce6565b820191906000526020600020905b815481529060010190602001808311610cc957829003601f168201915b5050505050905087565b6060806060806060806060600254604051908082528060200260200182016040528015610d3157816020015b6060815260200190600190039081610d1c5790505b5090506060600254604051908082528060200260200182016040528015610d6c57816020015b6060815260200190600190039081610d575790505b5090506060600254604051908082528060200260200182016040528015610da757816020015b6060815260200190600190039081610d925790505b5090506060600254604051908082528060200260200182016040528015610de257816020015b6060815260200190600190039081610dcd5790505b5090506060600254604051908082528060200260200182016040528015610e1d57816020015b6060815260200190600190039081610e085790505b5090506060600254604051908082528060200260200182016040528015610e5857816020015b6060815260200190600190039081610e435790505b5090506000600190506002548111151561140457610f24600160008381526020019081526020016000206001018054600181600116156101000203166002900480601f016020809104026020016040519081016040528092919081815260200182805460018160011615610100020316600290048015610f195780601f10610eee57610100808354040283529160200191610f19565b820191906000526020600020905b815481529060010190602001808311610efc57829003601f168201915b50505050508f61141b565b156113e657600160008281526020019081526020016000206001018054600181600116156101000203166002900480601f016020809104026020016040519081016040528092919081815260200182805460018160011615610100020316600290048015610fd35780601f10610fa857610100808354040283529160200191610fd3565b820191906000526020600020905b815481529060010190602001808311610fb657829003601f168201915b50505050508782815181101515610fe657fe5b90602001906020020181905250600160008281526020019081526020016000206002018054600181600116156101000203166002900480601f01602080910402602001604051908101604052809291908181526020018280546001816001161561010002031660029004801561109d5780601f106110725761010080835404028352916020019161109d565b820191906000526020600020905b81548152906001019060200180831161108057829003601f168201915b505050505086828151811015156110b057fe5b90602001906020020181905250600160008281526020019081526020016000206003018054600181600116156101000203166002900480601f0160208091040260200160405190810160405280929190818152602001828054600181600116156101000203166002900480156111675780601f1061113c57610100808354040283529160200191611167565b820191906000526020600020905b81548152906001019060200180831161114a57829003601f168201915b5050505050858281518110151561117a57fe5b90602001906020020181905250600160008281526020019081526020016000206004018054600181600116156101000203166002900480601f0160208091040260200160405190810160405280929190818152602001828054600181600116156101000203166002900480156112315780601f1061120657610100808354040283529160200191611231565b820191906000526020600020905b81548152906001019060200180831161121457829003601f168201915b5050505050848281518110151561124457fe5b90602001906020020181905250600160008281526020019081526020016000206005018054600181600116156101000203166002900480601f0160208091040260200160405190810160405280929190818152602001828054600181600116156101000203166002900480156112fb5780601f106112d0576101008083540402835291602001916112fb565b820191906000526020600020905b8154815290600101906020018083116112de57829003601f168201915b5050505050838281518110151561130e57fe5b90602001906020020181905250600160008281526020019081526020016000206006018054600181600116156101000203166002900480601f0160208091040260200160405190810160405280929190818152602001828054600181600116156101000203166002900480156113c55780601f1061139a576101008083540402835291602001916113c5565b820191906000526020600020905b8154815290600101906020018083116113a857829003601f168201915b505050505082828151811015156113d857fe5b906020019060200201819052505b8686868686869c509c509c509c509c509c505050505050505061140c565b505050505050505b91939550919395565b60035481565b60008160405160200161142e9190611bf0565b60405160208183030381529060405280519060200120836040516020016114559190611bf0565b6040516020818303038152906040528051906020012014905092915050565b60026000815480929190600101919050555060606040805190810160405280600381526020017f3132330000000000000000000000000000000000000000000000000000000000815250905060606040805190810160405280600381526020017f3435360000000000000000000000000000000000000000000000000000000000815250905060e06040519081016040528060025481526020018381526020018a81526020018281526020018681526020018581526020018481525060016000600254815260200190815260200160002060008201518160000155602082015181600101908051906020019061156b92919061160c565b50604082015181600201908051906020019061158892919061160c565b5060608201518160030190805190602001906115a592919061160c565b5060808201518160040190805190602001906115c292919061160c565b5060a08201518160050190805190602001906115df92919061160c565b5060c08201518160060190805190602001906115fc92919061160c565b5090505050505050505050505050565b828054600181600116156101000203166002900490600052602060002090601f016020900481019282601f1061164d57805160ff191683800117855561167b565b8280016001018555821561167b579182015b8281111561167a57825182559160200191906001019061165f565b5b509050611688919061168c565b5090565b6116ae91905b808211156116aa576000816000905550600101611692565b5090565b90565b600082601f83011215156116c457600080fd5b81356116d76116d282611cf3565b611cc6565b915080825260208301602083018583830111156116f357600080fd5b6116fe838284611d7a565b50505092915050565b60006117138235611d70565b905092915050565b60006020828403121561172d57600080fd5b600082013567ffffffffffffffff81111561174757600080fd5b611753848285016116b1565b91505092915050565b6000806040838503121561176f57600080fd5b600083013567ffffffffffffffff81111561178957600080fd5b611795858286016116b1565b925050602083013567ffffffffffffffff8111156117b257600080fd5b6117be858286016116b1565b9150509250929050565b600080600080600060a086880312156117e057600080fd5b600086013567ffffffffffffffff8111156117fa57600080fd5b611806888289016116b1565b955050602086013567ffffffffffffffff81111561182357600080fd5b61182f888289016116b1565b945050604086013567ffffffffffffffff81111561184c57600080fd5b611858888289016116b1565b935050606086013567ffffffffffffffff81111561187557600080fd5b611881888289016116b1565b925050608086013567ffffffffffffffff81111561189e57600080fd5b6118aa888289016116b1565b9150509295509295909350565b600080600080600080600080610100898b0312156118d457600080fd5b600089013567ffffffffffffffff8111156118ee57600080fd5b6118fa8b828c016116b1565b985050602089013567ffffffffffffffff81111561191757600080fd5b6119238b828c016116b1565b975050604089013567ffffffffffffffff81111561194057600080fd5b61194c8b828c016116b1565b965050606089013567ffffffffffffffff81111561196957600080fd5b6119758b828c016116b1565b955050608089013567ffffffffffffffff81111561199257600080fd5b61199e8b828c016116b1565b94505060a089013567ffffffffffffffff8111156119bb57600080fd5b6119c78b828c016116b1565b93505060c089013567ffffffffffffffff8111156119e457600080fd5b6119f08b828c016116b1565b92505060e089013567ffffffffffffffff811115611a0d57600080fd5b611a198b828c016116b1565b9150509295985092959890939650565b600060208284031215611a3b57600080fd5b6000611a4984828501611707565b91505092915050565b6000611a5d82611d2c565b80845260208401935083602082028501611a7685611d1f565b60005b84811015611aaf578383038852611a91838351611b05565b9250611a9c82611d4d565b9150602088019750600181019050611a79565b508196508694505050505092915050565b611ac981611d5a565b82525050565b6000611ada82611d42565b808452611aee816020860160208601611d89565b611af781611dbc565b602085010191505092915050565b6000611b1082611d37565b808452611b24816020860160208601611d89565b611b2d81611dbc565b602085010191505092915050565b611b4481611d66565b82525050565b600060c0820190508181036000830152611b648189611a52565b90508181036020830152611b788188611a52565b90508181036040830152611b8c8187611a52565b90508181036060830152611ba08186611a52565b90508181036080830152611bb48185611a52565b905081810360a0830152611bc88184611a52565b9050979650505050505050565b6000602082019050611bea6000830184611ac0565b92915050565b60006020820190508181036000830152611c0a8184611acf565b905092915050565b6000602082019050611c276000830184611b3b565b92915050565b600060e082019050611c42600083018a611b3b565b8181036020830152611c548189611b05565b90508181036040830152611c688188611b05565b90508181036060830152611c7c8187611b05565b90508181036080830152611c908186611b05565b905081810360a0830152611ca48185611b05565b905081810360c0830152611cb88184611b05565b905098975050505050505050565b6000604051905081810181811067ffffffffffffffff82111715611ce957600080fd5b8060405250919050565b600067ffffffffffffffff821115611d0a57600080fd5b601f19601f8301169050602081019050919050565b6000602082019050919050565b600081519050919050565b600081519050919050565b600081519050919050565b6000602082019050919050565b60008115159050919050565b6000819050919050565b6000819050919050565b82818337600083830152505050565b60005b83811015611da7578082015181840152602081019050611d8c565b83811115611db6576000848401525b50505050565b6000601f19601f830116905091905056fea265627a7a723058200da9cc9a718b32a11da60d183dcb2274515c66034268f3a1b92e19048d9569666c6578706572696d656e74616cf50037",
  "source": "pragma solidity 0.5.0;\npragma experimental ABIEncoderV2;\n\ncontract PDS{\n\n\n\n  struct PDSdata{\n    uint id;\n    string UIN;\n    string _type;\n    string quality;\n    string weight;\n    string location;\n    string arrival;\n\n\n  }\n  mapping(uint => PDSdata) public tempPDSdatas;\n\n  mapping(uint => PDSdata) public PDSdatas;\n  uint256 public PDScount;\n\n  // mapping(bytes=>(mapping(uiint->PDSdata)public)) public PDSlist;\n  uint public PDSlistcount; \n\n\n  constructor() public{\n    PDScount = 0;\n  }\n\n  function convertingToString(string memory _a) public returns(string memory){\n  \n    string memory converted = string(_a);\n    return converted;\n  }\n  \n\n\n  function  addPDS(string memory time, string memory _type,  string memory quality, string memory f_aadhar, string memory purist_aadhar, string memory weight, string memory location, string memory arrival) public {\n    PDScount++;\n    // bytes memory UIN = abi.encodePacked(time, convertingToString(f_aadhar));\n    // bytes memory qual = abi.encodePacked(quality, convertingToString(purist_aadhar));\n    string memory UIN = \"123\";\n    string memory qual = \"456\";\n    \n    PDSdatas[PDScount] = PDSdata(PDScount, UIN, _type, qual, weight, location, arrival);\n\n  }\n\n\n  function compareStrings (string memory a, string memory b) public returns (bool){\n    return keccak256(abi.encode(a)) == keccak256(abi.encode(b));\n  }\n\n  function printStatus(string memory UIN) public returns (string[] memory, string[] memory, string[] memory, string[] memory, string[] memory, string[] memory){\n    // uint tempPDScount = 0;\n \n\n    string[] memory uins = new string[](PDScount);\n\n    string[] memory _types = new string[](PDScount);\n\n    string[] memory qualities = new string[](PDScount);\n\n    string[] memory weights = new string[](PDScount);\n\n    string[] memory locations = new string[](PDScount);\n\n    string[] memory arrivals = new string[](PDScount);\n\n  \n    for(uint i = 1; i<=PDScount;i++){\n      if(compareStrings(PDSdatas[i].UIN, UIN)){\n        uins[i] = PDSdatas[i].UIN;\n        _types[i] = PDSdatas[i]._type;\n        qualities[i] = PDSdatas[i].quality;\n        weights[i] = PDSdatas[i].weight;\n        locations[i] = PDSdatas[i].location;\n        arrivals[i] = PDSdatas[i].arrival;\n\n        \n        \n\n      }\n      return (uins, _types, qualities, weights, locations, arrivals);\n    }\n  }\n\n  // function getUINsbykey() public {\n  //   for(uint i=1;i<=PDScount;i++){\n\n\n\n\n  //   }\n  // }\n\n\n  function warehouseUpdate(string memory UIN, string memory quality, string memory weight, string memory location, string memory arrival) public{\n    for(uint i = 1; i<=PDScount;i++){\n      if(compareStrings(PDSdatas[i].UIN, UIN)){\n        PDScount++;\n        \n        PDSdatas[PDScount] = PDSdata(PDScount, UIN, PDSdatas[i]._type, quality, weight, location, arrival);\n        break;\n\n      }\n    }\n\n  }\n}\n\n",
  "sourcePath": "/home/naveena/pragyan-hack-2019/contracts/PDS.sol",
  "compiler": {
    "name": "solc",
    "version": "0.5.0+commit.1d4f565a.Emscripten.clang"
  },
  "schemaVersion": "3.0.1",
  "updatedAt": "2019-01-20T00:12:05.861Z",
  "devdoc": {
    "methods": {}
  },
  "userdoc": {
    "methods": {}
  }
}